:1008B50010083F065B4F666D7D077F6F777C395E5D
:0608C50079710218000029
:1008CC00EF1FAC0670011E4C600A7D027CEFDCFE53
:0408DC00DDFC80ECD3
:0108E00022F5
:10088C00C2A4C2A3C2A274082519F8E6F5807FF4AD
:10089C007E011208CC0519E5197002051864104583
:0908AC001870E3F518F51980DD60
:03000000020800F3
:0C080000787FE4F6D8FD758119020847E6
:10080C0002088CE493A3F8E493A34003F68001F26E
:10081C0008DFF48029E493A3F85407240CC8C333ED
:10082C00C4540F4420C8834004F456800146F6DFBC
:10083C00E4800B01020408102040809008B5E47E8F
:10084C00019360BCA3FF543F30E509541FFEE493B1
:10085C00A360010ECF54C025E060A840B8E493A378
:10086C00FAE493A3F8E493A3C8C582C8CAC583CAA3
:10087C00F0A3C8C582C8CAC583CADFE9DEE780BE5B
:0108CB00002C
:00000001FF
