:1009790002080000020C0000020E0000020A039A9D
:10094D005389F0438901758A66758CFCC28DD28CF2
:07095D00D2A9D2AFC2B922FA
:10096400EF1FAC0670011E4C600A7D027CEFDCFEBA
:04097400DDFC80EC3A
:01097800225C
:10088C00E5087063E50914603104705BAF0D74808A
:10089C00A807088002C313D8FCF5A0050DE50D7060
:1008AC0002050C6408450C7004F50CF50DC37408B6
:1008BC00950DF50FE4950CF50E22AF0F7401A807FA
:1008CC00088002C333D8FCF5A0050FE50F700205B4
:1008DC000E6408450E7004F50EF50FC37408950FE1
:0808EC00F50DE4950EF50C2258
:1009280012094D3090FD7F147E001209642090FD5D
:100938007F147E00120964C374019509F509E495D2
:0509480008F50880DE47
:03000B000208F4F4
:1008F400C0E0C0D075D000C000C007758A66758C92
:10090400FC050BE50B7002050AD3949AE50A9403DF
:10091400400912088C750A00750B00D007D000D06E
:04092400D0D0E0321D
:03000000020800F3
:0C080000787FE4F6D8FD75810F020847F0
:10080C00020928E493A3F8E493A34003F68001F2D1
:10081C0008DFF48029E493A3F85407240CC8C333ED
:10082C00C4540F4420C8834004F456800146F6DFBC
:10083C00E4800B0102040810204080900979E47ECA
:10084C00019360BCA3FF543F30E509541FFEE493B1
:10085C00A360010ECF54C025E060A840B8E493A378
:10086C00FAE493A3F8E493A3C8C582C8CAC583CAA3
:10087C00F0A3C8C582C8CAC583CADFE9DEE780BE5B
:01098900006D
:00000001FF
