:1004230059656C6C6F772D436F6C64706C617900E8
:100433005265636F6D706F73656400427920537406
:10044300656C6C61303330002254686973206973C2
:10045300206120736F6E6700666F72206D79206C68
:100463006F76652E22004C6F6F6B20617420746869
:1004730065007374617273004C6F6F6B20686F77E4
:100483002074686579007368696E6520666F7220F1
:10049300796F7500416E6420657665727974686959
:1004A3006E6700796F7520646F00596561682C2051
:1004B30074686579207765726500616C6C20796575
:1004C3006C6C6F7700492063616D6520616C6F6EA2
:1004D3006700492077726F7465206120736F6E67C0
:1004E30000666F7220796F7500416E6420616C6CD9
:1004F30020746865007468696E677320796F75206E
:10050300646F00416E6420697420776173006361D6
:100513006C6C65642079656C6C6F7700536F207425
:1005230068656E204920746F6F6B006D7920747558
:10053300726E004F682C20776861742061207468A4
:10054300696E6700746F206861766520646F6E65FD
:1005530000416E642069742077617320616C6C00C4
:1005630079656C6C6F7700596F757220736B696E68
:10057300004F6820796561682C20796F757200736C
:100583006B696E20616E6420626F6E6573005475D3
:10059300726E20696E746F00736F6D657468696E37
:1005A300670062656175746966756C00446F2079D4
:1005B3006F75206B6E6F7700596F75206B6E6F7759
:1005C3002049206C6F766500796F7520736F001179
:1005D3000411061102110411041106110211041170
:1005E3000211021102110211021102110211021170
:1005F300021102110211021102110211020002FF83
:100603001402140214021402140214021402140237
:100613001402120212021202120212021202120235
:1006230018021802180218021802180218021802F7
:10063300180216021602160216021602160200020B
:10064300FF0F020F020F020F020F020F020F020F22
:10065300020F020D020D020D020D020D020D020D1D
:1006630002140214021402140214021402140214D7
:1006730002140212021202120212021202120212D5
:10068300020002FF1B021D021B021D040004FF00E7
:10069300021B021D021B021D0420061B060008FF8D
:1006A300000219021B0219021B0420021906000C86
:1006B300FF0003160119011601190419011601148B
:1006C300040002FF110211021102110211021102B0
:1006D30011020002FF110211021102110211021193
:1006E300021102120212021202120211021102116B
:1006F3000211020004FF1904220620020002FF195E
:10070300021902200220021D021D040004FF190227
:100713002202220620020002FF19021902200220EF
:10072300021D021D040004FF1902220222062002F8
:100733000002FF19021902200220021D021D0416E5
:10074300080008FF000219021902200220021D02FC
:100753001D0414080008FFFF0423FF0433FF043EB5
:10076300FF044BFF045BFF0469FF0475FF047BFF79
:100773000489FF0497FF04A6FF04ADFF04BDFF0433
:10078300C8FF04D5FF04E4FF04ECFF04F8FF0506EB
:10079300FF0511FF051FFF052EFF0536FF0547FF68
:1007A3000554FF0563FF056AFF0591FF059BFF05E0
:0707B300A5FF05BBFF05CB0C
:1009A500204A2B0000F88CF8F3F95BF9B8FA15FA30
:1009B50067FAB9FB04FB4BFB90FBCFFC10FC44FC36
:1009C50079FCACFCDCFD09FD34FD5CFD82FDA6FD7A
:1009D500C8FDE8FE06FE22FE3DFE56FE6EFE85FEC5
:1009E5009AFEAEFEC1FED3FEE4FEF4FF030324FF30
:0C09F50005740327FF05820308FF05AF0F
:080945007BFF7A0679927E0027
:10094D008E758F768B778A788979AF76740D2FF8BF
:10095D00E6AB77AA78A979F582758300120A36FE7F
:10096D00F460328E2A740D2FF806740D2576F8E694
:10097D00F582758300120A3675F07DA4FFAEF01274
:10098D000A9D740D2576F806C28C7F057E00120A2D
:08099D009DD28C80B5020AB264
:10000E00120000120AB290075AE493FB740193FA9D
:10001E00740293F97D017F01120A637BFF7A0579E1
:10002E00D2E4FFFE12094D90075DE493FB74019339
:10003E00FA740293F97D017F01120A63900760E45E
:10004E0093FB740193FA740293F97D057F02120AF1
:10005E00637BFF7A0679037F017E0012094D9007BC
:10006E0063E493FB740193FA740293F97D017F01AB
:10007E00120A63900766E493FB740193FA74029379
:10008E00F97D047F02120A637BFF7A0679447F02B0
:10009E007E0012094D900769E493FB740193FA7484
:1000AE000293F97D017F01120A6390076CE493FBC2
:1000BE00740193FA740293F97D017F02120A637B35
:1000CE00FF7A0679877F037E0012094D90076FE451
:1000DE0093FB740193FA740293F97D017F01120A66
:1000EE0063900772E493FB740193FA740293F97DA3
:1000FE00017F02120A637F04120945900775E4938B
:10010E00FB740193FA740293F97D017F01120A6365
:10011E00900778E493FB740193FA740293F97D01CE
:10012E007F02120A637BFF7A0679A37F057E001297
:10013E00094D90077BE493FB740193FA740293F9D3
:10014E007D017F01120A6390077EE493FB74019395
:10015E00FA740293F97D017F02120A637BFF7A061D
:10016E0079B47F067E0012094D900781E493FB74EB
:10017E000193FA740293F97D017F01120A637BFFEA
:10018E007A0679877F077E0012094D900784E493E3
:10019E00FB740193FA740293F97D017F01120A63D5
:1001AE00900787E493FB740193FA740293F97D012F
:1001BE007F02120A637F0812094590078AE493FBB7
:1001CE00740193FA740293F97D017F01120A639010
:1001DE00078DE493FB740193FA740293F97D017F0A
:1001EE0002120A637BFF7A0679A37F097E00120949
:1001FE004D900790E493FB740193FA740293F97D8A
:10020E00017F01120A63900793E493FB740193FA42
:10021E00740293F97D017F02120A637BFF7A0679DD
:10022E00B47F0A7E0012094D7BFF7A0679C77F0BD9
:10023E007E0012094D900796E493FB740193FA74B5
:10024E000293F97D017F01120A63900799E493FBF3
:10025E00740193FA740293F97D017F02120A637B93
:10026E00FF7A0679927F0C7E0012094D90079CE46E
:10027E0093FB740193FA740293F97D017F01120AC4
:10028E006390079FE493FB740193FA740293F97DD4
:10029E00017F02120A637BFF7A0679A37F0D7E002F
:1002AE0012094D9007A2E493FB740193FA74029322
:1002BE00F97D017F01120A639007A5E493FB740197
:1002CE0093FA740293F97D017F02120A637BFF7A1F
:1002DE000679B47F0E7E0012094D7BFF7A0679D81F
:1002EE007F0F7E0012094D9007A8E493FB740193D3
:1002FE00FA740293F97D017F01120A637BFF7A067D
:10030E0079F97F107E0012094DAB24AA25A9267D0E
:10031E00017F01120A63AB27AA28A9297D017F025A
:10032E00120A637BFF7A0779027F117E0012094D54
:10033E009007ABE493FB740193FA740293F97D0179
:10034E007F01120A637BFF7A0779117F127E0012FA
:10035E00094D9007AEE493FB740193FA740293F97E
:10036E007D017F01120A639007B1E493FB74019340
:10037E00FA740293F97D087F02120A637BFF7A07F3
:10038E00791C7F167E0012094DAB08AA09A90A7DB9
:10039E00017F01120A637BFF7A07792B7F137E00A0
:1003AE0012094D9007B4E493FB740193FA7402930F
:1003BE00F97D017F01120A639007B7E493FB740184
:1003CE0093FA740293F97D017F02120A637BFF7A1E
:1003DE000779367F147E0012094D9007B4E493FB23
:1003EE00740193FA740293F97D017F01120A6390EE
:1003FE0007B7E493FB740193FA740293F97D017FBE
:10040E0002120A637BFF7A0779477F157E00120975
:05041E004DC28C80FEC0
:03000B00020A02E4
:100A0200C0E0C0D075D000C000C006E52A25E024B1
:100A12002BF8E6FE08E64E6012E52A25E0242BF8C4
:100A2200E6FE08E6F58AEEF58CB2A5D006D000D037
:040A3200D0D0E0320E
:1007BA00E4F57A7590FFC2932097137F14FE120A0C
:1007CA009D3097FD7F147E00120A9D757A0120964E
:1007DA00147F147E00120A9D3096FD7F147E00124B
:1007EA000A9D757A042095147F147E00120A9D30A2
:1007FA0095FD7F147E00120A9D757A077590FFC2D7
:10080A00922097147F147E00120A9D3097FD7F1460
:10081A007E00120A9D757A022096147F147E0012B9
:10082A000A9D3096FD7F147E00120A9D757A052076
:10083A0095147F147E00120A9D3095FD7F147E0068
:10084A00120A9D757A082094147F147E00120A9D5C
:10085A003094FD7F147E00120A9D757A0A7590FF06
:10086A00C2912097147F147E00120A9D3097FD7F53
:10087A00147E00120A9D757A032096147F147E0056
:10088A00120A9D3096FD7F147E00120A9D757A0623
:10089A002095147F147E00120A9D3095FD7F147EE8
:0E08AA0000120A9D757A097590FFC290AF7A10
:0108B800221D
:100A9D00EF1FAC0670011E4C600A7D027CEFDCFE80
:040AAD00DDFC80EC00
:010AB1002222
:060AD600C2A58F80D2A72B
:080ADC007F027EEFDEFEDFFC6D
:010AE40022EF
:0A0AE500C2A6120AD6C2A7020ADC5C
:0A0AEF00D2A6120AD6C2A7020ADC42
:100AB2007F38120AE57F0C120AE57F06120AE57FEB
:040AC20001020AE53E
:100AC600EDBF0103148002243F4480FF120AE52291
:060A63008B758A7689778D
:100A6900120AC6E4FDAB75AA76A9778D8275830053
:0C0A7900120A36FF6006120AEF0D80E939
:010A8500224E
:100A86005389F0438901758A18758CFCC28DD28C06
:070A9600D2A9D2AFC2B922C0
:030000000208B93A
:0C08B900787FE4F6D8FD75817A02090012
:100A3600BB010CE58229F582E5833AF583E0225075
:100A460006E92582F8E622BBFE06E92582F8E222BF
:0D0A5600E58229F582E5833AF583E49322D9
:1008C50002000EE493A3F8E493A34003F68001F23B
:1008D50008DFF48029E493A3F85407240CC8C33334
:1008E500C4540F4420C8834004F456800146F6DF03
:1008F500E4800B01020408102040809009A5E47EE5
:10090500019360BCA3FF543F30E509541FFEE493F7
:10091500A360010ECF54C025E060A840B8E493A3BE
:10092500FAE493A3F8E493A3C8C582C8CAC583CAE9
:10093500F0A3C8C582C8CAC583CADFE9DEE780BEA1
:010A010000F4
:00000001FF
