:1010A10020202020204552524F5221002020202074
:0910B10057656C636F6D65210049
:0910D100014AC801570001580151
:0C10BA00C2A5C2A78B80D2A77FE87E03EE
:0B10C600EF1FAC0670011E4C70F622FC
:04106700AF4A7E000E
:10106B00AB07AA06EB1BAE0270011A4E600BB2A5C2
:0C107B007F647E001210C680EBC2A5222C
:1007B300E4F55A7590F7E59064F7604C1210C2AFF8
:1007C30090EF2449601124E0601224F06019247032
:1007D3007036755A018008755A048003755A0712DA
:1007E3001067120C338021121067755A0AE547709F
:1007F300087543017F2EFE800CE547B4010A75445A
:10080300017F2E7E00121090E590B4F7FB7590FBEC
:10081300E59064FB60351210C2AF90EF2445601180
:1008230024E0601224F060172470701F755A028050
:1008330008755A058003755A08AF4A7E008006E49E
:10084300F55AAF4AFE12106B120C33E590B4FBFB62
:100853007590FDE59064FD60611210C2AF90EF24C6
:1008630043601124E0601224F060192470704B750A
:100873005A038008755A068003755A0912106712C5
:100883000C338036121067755A0B7F3D7E001210B1
:1008930090120992E559701F854E62854D61854C12
:1008A30060854B5F7FC0FE121058AF4EAE4DAD4C0E
:1008B300AC4B1205928003E4F559E590B4FDFB754A
:1008C30090FEE59064FE603C1210C2AF90EF2442AC
:1008D300601124E0601C24F0601D24707026755A9A
:1008E3000C8017755A0D121067AF5A7E00120D3D1A
:1008F3008012755A0E8003755A0F121067AF5A7E15
:1009030000120F77E590B4FEFBE558640170703078
:10091300B10930B00630B20320B3641210C2E4F55B
:100923005820B11AAF4AFE12106B7F017E001210DD
:1009330058120EF9E4F562F561F560F55F2220B017
:1009430006121067020B2020B2181210677F017E77
:1009530000121058120EF9AF62AE61AD60AC5F02C7
:10096300059220B3291210670557E5575401F56422
:100973007004754AC822E564B40113E4F54A2230D1
:0F098300B10C30B00930B20630B3037558012201
:100D3D00EF640D4E6003020DE0FFFEFDFCAB62AAF9
:100D4D0061A960A85F1202A17044E5477024AF3E0F
:100D5D00AE3DAD3CAC3BEC4D4E4F7010E55C455B94
:100D6D00700A7F2DFE121090754501227F2D7E0099
:100D7D008035E5476401705BAF42AE41AD40AC3F9D
:100D8D00EC4D4E4F704DE55E455D7047803CE4FF88
:100D9D00FEFDFCAB62AA61A960A85F1202A16033DF
:100DAD00E547700D7F2DFE121090754901754701B5
:100DBD0022E547B4011DAF42AE41AD40AC3FEC4D15
:100DCD004E4F700FE55E455D70097546017F2DFE36
:040DDD00121090223E
:10099200E4FFFEFDFCAB62AA61A960A85F1202A19E
:1009A200600E856252856151856050855F4F804A35
:1009B200AC37AD38E4120330C004C005C006C0072E
:1009C200AC5BAD5CE4120330D003D002D001D000A6
:1009D200120204C004C005C006C007AF3EAE3DAD62
:1009E2003CAC3BEC12032BD003D002D001D000125E
:1009F200000A8F528E518D508C4FAC39AD3AE412B1
:100A02000330C004C005C006C007AC5DAD5EE41291
:100A12000330D003D002D001D000120204C004C0BF
:100A220005C006C007AF42AE41AD40AC3FEC120379
:100A32002BD003D002D001D00012000A8F568E555F
:100A42008D548C53E545B40113AF52AE51AD50AC49
:100A52004F12031A8F528E518D508C4FE546B401BE
:100A620013AF56AE55AD54AC5312031A8F568E5572
:100A72008D548C53E549146022146034146046246A
:100A8200036003020B1FAF56AE55AD54AC53AB52CD
:100A9200AA51A950A84F12000A807AAB56AA55A9AA
:100AA20054A853AF52AE51AD50AC4F120006806500
:100AB200AF56AE55AD54AC53AB52AA51A950A84F44
:100AC2001200FB8050E4FFFEFDFCAB56AA55A95470
:100AD200A8531202A1702B7559017F01FE12105802
:100AE200E4F548E5489010A193FF7E0012109005AE
:100AF20048E548C3940B40EB7F507EC31210C602F8
:100B02000EF9AB56AA55A954A853AF52AE51AD50E7
:0E0B1200AC4F1202048F4E8E4D8D4C8C4B2238
:040C3300AF5A7E0036
:100C37008E088F09E4FFFEFDFCAB62AA61A960A8DC
:100C47005F1202A1601CE54764016003020D3CE5E9
:100C5700447003020CDEE54464016003020D3C02AC
:100C67000D19E5477067E5437036121087E47F0A70
:100C7700FEFDFCAB3EAA3DA93CA83B120451A804CB
:100C8700A905AA06AB07AE08EE3395E0FDFCEB25F8
:100C970009F53EEA3EF53DE93DF53CE83CF53B22EA
:100CA700E54364016003020D3C121087AE5BAF5C45
:100CB7007C007D0A1203EAE5092FF55CE5083EF59D
:100CC7005BAE37AF381203EA8E378F3822E54764B9
:100CD700017062E5447036121087E47F0AFEFDFC5E
:100CE700AB42AA41A940A83F120451A804A905AAEA
:100CF70006AB07AE08EE3395E0FDFCEB2509F542A0
:100D0700EA3EF541E93DF540E83CF53F22E544B4CC
:100D17000123121087AE5DAF5E7C007D0A1203EAE5
:100D2700E5092FF55EE5083EF55DAE39AF3A1203EA
:060D3700EA8E398F3A221A
:100F77008E088F09E5477051E509640C450860182C
:100F8700E509640D45086010E509640E4508600829
:100F9700E509640F45087031E509640C45087006DA
:100FA700F5497F2B801CE509640E450870077549D4
:100FB700027F2A800DE509640F4508700C75490307
:0A0FC7007F2FFE12109075470122E3
:100B20007F047E001210587F207E001210907F06F6
:100B30007E001210587F207E001210907F047E00ED
:100B40001210587F207E001210907F067E00121037
:100B500058E54764017072AF42AE41AD40AC3FEC26
:100B60004D4E4F7016E55E455D7010E546B40104CC
:100B7000E4F54622E4F54775490422E5447019AFCF
:100B800042AE41AD40AC3F7B0AFAF9F8120FD18F6B
:100B9000428E418D408C3F22E54464016003020C8B
:100BA00032E55E455D7003F54422AE5DAF5E7C00CC
:100BB0007D0A1203FC8E5D8F5EAE39AF3A7C007DFC
:100BC0000A1203FC8E398F3A22E5477065E545B479
:100BD0000117AF3EAE3DAD3CAC3BEC4D4E4F700906
:100BE000E55C455B7003F54522E5437019AF3EAE09
:100BF0003DAD3CAC3B7B0AFAF9F8120FD18F3E8E2B
:100C00003D8D3C8C3B22E543B40127E55C455B70A0
:100C100003F54322AE5BAF5C7C007D0A1203FC8EC1
:100C20005B8F5CAE37AF387C007D0A1203FC8E37D9
:030C30008F3822D8
:101043001210C67F387E001210587FF47E011210F2
:05105300C67F387E009D
:0F105800AB07AA061210C2C2A61210BAC2A72274
:09108700E5092430FFE43508FE00
:10109000AB07AA061210C2D2A61210BAC2A7C2A6E5
:0110A000222D
:100EF9007FDC7E051210437FF47E011210437F08C8
:100F09007E001210587F017E001210587F067E0065
:100F19001210587F0C7E001210587F0F7E0012109D
:100F290058E4F545F546F547754904F5377538012F
:100F3900F539753A01F55AF548F53EF53DF53CF5B3
:100F49003BF542F541F540F53FF55BF55CF55DF59F
:100F59005EF543F544F552F551F550F54FF556F563
:0E0F690055F554F553F54EF54DF54CF54B226C
:080592008F0B8E0A8D098C0805
:10059A00E4F50FF50EF50DF50CF513F512F511F559
:1005AA0010F517F516F515F514F51BF51AF519F5E5
:1005BA0018F51FF51EF51DF51CFFFEFDFCAB0BAA79
:1005CA000AA909A8081202A1501A7F2D7E0012104A
:1005DA0090AF0BAE0AAD09AC0812031A8F0B8E0A44
:1005EA008D098C087F007E207D4B7C46AB0BAA0AC6
:1005FA00A909A8081202A1600540030207A4E4FFA2
:10060A00FE7D207C41AB0BAA0AA909A8081200FBAF
:10061A001203698F0F8E0E8D0D8C0CAF0BAE0AADC7
:10062A0009AC081203698F178E168D158C14E4FF16
:10063A00FE7DC87C42AB0BAA0AA909A8081200FBD6
:10064A001203698F1F8E1E8D1D8C1CE47F0AFEFD0E
:10065A00FCAB17AA16A915A814120451A804A905D7
:10066A00AA06C3E50F9FF513E50E9AF512E50D9953
:10067A00F511E50C98F510E47F64FEFDFCAB17AAB2
:10068A0016A915A814120451C3E51F9FFFE51E9E63
:10069A00FEE51D9DFDE51C9CFCC004C005C006C00E
:1006AA0007E47F0AFEFDFCAB13AA12A911A81012D7
:1006BA000451A804A905AA06AB07D007D006D0059D
:1006CA00D004C3EF9BF51BEE9AF51AED99F519ECD8
:1006DA0098F518E47F05FEFDFCAB1BAA1AA919A818
:1006EA0018C31204AE4059E47F09FEFDFCA818D3D2
:1006FA001204AE504BE5132401F513E43512F5123A
:10070A00E43511F511E43510F510E47F0AFEFDFC1D
:10071A00AB13AA12A911A810C31204AE7022AF0B10
:10072A00AE0AAD09AC08FBFA7980783F12000A8F4D
:10073A000B8E0A8D098C08E4F513F512F511F510E4
:10074A00AF13AE12AD11AC10EC4D4E4F7014AF1783
:10075A00AE16AD15AC14EC4D4E4F703E7F30FE0216
:10076A001090AF17AE16AD15AC14EC4D4E4F700885
:10077A007F30FE121090800EAF0BAE0AAD09AC08A6
:10078A00120369120DE17F2E7E001210907F307ED7
:10079A0000121090AE12AF13800BAF0BAE0AAD0968
:0807AA00AC08120369120DE115
:0107B2002224
:080DE1008F238E228D218C204E
:100DE900E4F533F534F535F536E4FFFEFDFCAB23C8
:100DF900AA22A921A820D31204AE4043E47B0AFA0F
:100E0900F9F8AF23AE22AD21AC20120FD1AF030503
:100E190036E536700205352424F8A6070534E5348D
:100E290070020533AF23AE22AD21AC20E47B0AFA70
:100E3900F9F8120FD18F238E228D218C2080AAD30D
:100E4900E5349400E5339400401974242534F8E618
:100E59002430FFE433FE121090E534153470E015A8
:030E69003380DCF7
:010E6C002263
:10101500120EF9E4F563E5639010AD93FF7E0012BF
:1010250010907FB87E0B1210C60563E563C3940C60
:0E10350040E47F017E001210581207B380FBCA
:100003000203D5E86480F8E933E83360110460F053
:10001300ED33EC337009E8FCE9FDEAFEEBFF220463
:1000230060DED3EB9FEA9EE99DE8C2E78CF0C2F75E
:1000330095F0400CE8CCF8E9CDF9EACEFAEBCFFB2A
:100043001203A085D0F05804700320D5B3E80470E0
:10005300075002B2D50203DF92D5EC0460F7E4CC7B
:10006300C0E0C398F8603B94186008400DD0E0FBF3
:100073000203B7E4FBFAC9FC8028E830E406E4C9CC
:10008300FBE4CAFCE830E305E4C9CACBFCE8540747
:100093006010F8C3E913F9EA13FAEB13FBEC13FC52
:1000A300D8F130F52FC3E49CFCEF9BFFEE9AFEEDF5
:1000B30099FDD0E0FBEF4E4D4C701222DB0302039F
:1000C300DCEC2CFCEF33FFEE33FEED33FDED30E7DC
:1000D300EB0203B7EF2BFFEE3AFEED39FDD0E0FB69
:1000E30050130BBB00030203DFED13FDEE13FEEF12
:0800F30013FFEC13FC0203B73C
:1000FB00EC4D6011E8497017ED33EC3304600DE4FF
:10010B00FCFFFEFD22E933E8330470F80203D5123D
:10011B0003A058046009E4CC24815006285009023E
:10012B0003DF2840030203DCC0E0EB4A7044B980D4
:10013B0006D0E0FB0203CBEF4E701CBD8008EBFF3B
:10014B00EAFEE9FD80EBE98DF0A4FEE5F00201E4A7
:10015B00E9CDF9EAFEEBFFEF89F0A4FCE5F0CE89DF
:10016B00F0A42EFFE435F0CD89F0A42DFEE435F09C
:10017B008067EF4E7005BD80D780C3EF8BF0A4ACCA
:10018B00F0EE8BF0A42CFCE435F0F8EF8AF0A42C05
:10019B00E5F038FCE433CB8DF0A42CFCE5F03BF818
:1001AB00EE8AF0A42CFCE5F038F8E433CF89F0A408
:1001BB002CFCE5F038CF3400CE89F0A42FFFE5F00E
:1001CB003EFEE433C98DF0A42EFEE5F039CD8AF066
:1001DB00A42FFFE5F03EFEE43DFD33D0E0FB5007DE
:1001EB000BBB000F0203DFEC2CFCEF33FFEE33FEF7
:0601FB00ED33FD0203B725
:100201000203DFEC5D046005E8590470030203D5C5
:100211001203A0580460F6EC4860F2EC7004FDFE95
:10022100FF22C860DB2481C85009C39860025006D0
:100231000203DC9850CAF582E9294B4A7005AB826A
:100241000203CB75F0007C1A7880C3EF9BEE9AED28
:1002510099400DC3EF9BFFEE9AFEED99FDE842F048
:10026100DC23ACF0D0E0FFD0E0FED0E0FDAB82209B
:10027100E7101BEB60BAEC2CFCEF33FFEE33FEED25
:1002810033FD0203B7E803F830E705C0F075F0006D
:10029100EF2FFFEE33FEED33FD40B830E7C280AA09
:1002A10074F8CC6480CCC86480C8F58204604FC304
:1002B100EB9FF5F0EA9E42F0E99D42F0E89C45F0A3
:1002C100603C501DE5825FFFE582D313CB5BCBF42D
:1002D1002B5582FB50280ABA002409B90020088056
:1002E1001DE5825BFBE582D313CF5FCFF4C3132FF0
:1002F1005582FF50090EBE00050DBD00010CC3EB78
:100301009FF5F0EA9E42F0E99D42F0E89C45F060DD
:0903110007CC4820E701B3EC22FF
:10031A00ED33EC33600A047003BD8004ECB2E7FCF1
:01032A0022B0
:10032B0075F020800E75F010800575F0087D007E4D
:10033B00007F003392D530D5031204A0EC3340106C
:10034B00EF33FFEE33FEED33FDEC33FCD5F0ED2256
:0E035B00E5F0247EA2D513CC92E7CDCEFF2292
:10036900EDD2E7CD33EC3392D524814006E4FFFE8C
:10037900FDFC22FCE4CFCECDCC24E0501174FF80EB
:10038900EDC3CC13CCCD13CDCE13CECF13CF047088
:07039900F030D5DE0204A0E4
:1003A000E9D2E7C933E833F892D5EDD2E7CD33ECA3
:0703B00033FC5002B2D5221C
:1003B700EC30E7100FBF000C0EBE00080DBD0004A7
:1003C7000BEB6014A2D5EB13FCED92E7FD2274FF53
:1003D700FCFDFEFF22E480F8A2D574FF13FC7D80AC
:0303E700E480EFC0
:03000000020E6D80
:0C0E6D00787FE4F6D8FD758164020EB4B5
:1003EA00EF8DF0A4A8F0CF8CF0A428CE8DF0A42E27
:0203FA00FE22E1
:1003FC00BC000BBE0029EF8DF084FFADF022E4CCE5
:10040C00F875F008EF2FFFEE33FEEC33FCEE9DECAD
:10041C00984005FCEE9DFE0FD5F0E9E4CEFD22EDF3
:10042C00F8F5F0EE8420D21CFEADF075F008EF2F3D
:10043C00FFED33FD4007985006D5F0F222C398FD2E
:05044C000FD5F0EA22CB
:10045100E88FF0A4CC8BF0A42CFCE98EF0A42CFC4A
:100461008AF0EDA42CFCEA8EF0A4CDA8F08BF0A4C8
:100471002DCC3825F0FDE98FF0A42CCD35F0FCEB27
:100481008EF0A4FEA9F0EB8FF0A4CFC5F02ECD39EC
:0F049100FEE43CFCEAA42DCE35F0FDE43CFC2259
:100FD100C2D5E830E70FB2D5E4C39BFBE49AFAE44B
:100FE10099F9E498F8EC30E717B2D5121007120519
:100FF10000E4C39BFBE49AFAE499F9E498F88003CE
:1010010012050030D50DE4C39FFFE49EFEE49DFD73
:04101100E49CFC223D
:0E04A000C3E49FFFE49EFEE49DFDE49CFC226D
:1004AE00EB9FF5F0EA9E42F0E99D42F0EC6480C8C5
:0604BE0064809845F02265
:100E7900021015E493A3F8E493A34003F68001F26A
:100E890008DFF48029E493A3F85407240CC8C3337A
:100E9900C4540F4420C8834004F456800146F6DF49
:100EA900E4800B01020408102040809010D1E47EF8
:100EB900019360BCA3FF543F30E509541FFEE4933E
:100EC900A360010ECF54C025E060A840B8E493A305
:100ED900FAE493A3F8E493A3C8C582C8CAC583CA30
:100EE900F0A3C8C582C8CAC583CADFE9DEE780BEE8
:0110DA000015
:1004C40075F008758200EF2FFFEE33FECD33CDCCEF
:1004D40033CCC58233C5829BED9AEC99E582984072
:1004E4000CF582EE9BFEED9AFDEC99FC0FD5F0D64F
:1004F400E4CEFBE4CDFAE4CCF9A88222B800C1B979
:100504000059BA002DEC8BF084CFCECDFCE5F0CBB6
:10051400F97818EF2FFFEE33FEED33FDEC33FCEBEF
:1005240033FB10D703994004EB99FB0FD8E5E4F9AA
:10053400FA227818EF2FFFEE33FEED33FDEC33FC97
:10054400C933C910D7059BE99A4007EC9BFCE99A8B
:10055400F90FD8E0E4C9FAE4CCFB2275F010EF2FD0
:10056400FFEE33FEED33FDCC33CCC833C810D707D0
:100574009BEC9AE899400AED9BFDEC9AFCE899F80B
:0E0584000FD5F0DAE4CDFBE4CCFAE4C8F9229E
:00000001FF
