:10001E0030303A00504C41593A0057454C434F4D01
:10002E0045204D55534943002020202020202020DC
:10003E0020202020202020200005020103020102A2
:10004E000202020204030201010201020201030282
:10005E00040502010302010202020202020501016D
:10006E000302010402010302040302010302010759
:10007E000201030201020202010201070101010253
:10008E00010202010302010602030601010102013F
:10009E00030201020201060101010201070101052D
:1000AE00010106010605020103020102020202021B
:1000BE000102020103020101020102020103020414
:1000CE0005020103020102020202020102020105FF
:1000DE0001010302010402010302040302010302EF
:1000EE0001070203030201020202010201070101DC
:1000FE0001020102020103020106020306010101CF
:10010E0002010302010202010601010102010701BF
:10011E0002050102060106000000050101020201AE
:10012E000302020202010302010502010602010599
:10013E00020301020102020103020106020105028D
:10014E000103020105020305020106020101030279
:10015E00060201050201030201050201030202016A
:10016E000201020201030201010201060101030262
:10017E000102020105010102020103020202020153
:10018E00030201050201060201050203010201023A
:10019E000201030201060201050203050201060225
:1001AE00010103020602010502010302010502011B
:1001BE000302020102010601010302010202010112
:1001CE000201060101010201020201020201010205
:1001DE0004000000050101010201020201030201F7
:1001EE0002020103020104020105020105020105DA
:1001FE0002010402010302010202030501010102D0
:10020E0001020201030201040201050201050201BD
:10021E0005020106020105020202020103020101AA
:10022E0002020102010601010202010202010302A1
:10023E000103020101020105020101020105020191
:10024E000102010701010102010102010601010281
:10025E00020102020103020103020105020105026D
:10026E00010502010602010502020202010302015A
:10027E000102020501010102010201020302010253
:10028E000201030201040201050201050201050239
:10029E000104020103020102020305010101020130
:1002AE00020201030201020201030201040201051E
:1002BE00020105020105020202020103020101020E
:1002CE000201020106010102020102020103020102
:1002DE0003020101020205020101020105020105EC
:1002EE0002010701010102010000000602030502DE
:1002FE0001030202050202010302060201050201C8
:10030E0006020403020205020106020105020203AF
:10031E0002020102010601010502010302010202AD
:10032E000402020303020105020205020106020194
:10033E000302020202020102040502030302010289
:10034E000201010201060101010201050106000080
:10035E00000302020302010402010302020202016F
:10036E00010201020202050202020202020203015E
:10037E00020201020102020101020207010106014D
:10038E00010701020302020701020701030601022F
:10039E00020201030201020201010201060102052D
:1003AE000102020201030201020201010201060121
:1003BE000206010202020103020102020101020110
:1003CE0006010107010101020600000003010203FC
:1003DE0001010301010600010600010101020600F0
:1003EE0001050001060004060002060001060001D8
:1003FE0006000206000101010102010202010103D1
:10040E0001010201040301010301010301010201C3
:10041E0001040102040102030102020101010101B2
:10042E000201040700010700010700010600010593
:10043E00000105000106000107000107000106008A
:10044E000105000106000406010203010106010177
:10045E000701010601010501010501020501010265
:10046E00010105010106010105010104010104015B
:10047E000204010103010102010201010102010155
:10048E000301010201010101010201010301040640
:10049E000102030101060101070101060101050127
:1004AE00010501020201010501010601010501011B
:1004BE000401010000000501020301030501010111
:1004CE0002030601020102020501040501020101F7
:1004DE0001020101030102020101010101020104F5
:1004EE0005010203010105010101020207010106D6
:1004FE0001020102020501040501020201010301CC
:10050E0001040102070001010104060102010202B9
:10051E00010204070102060101070101010204069E
:10052E000101070101010201060101060101050198
:10053E00010301010101010201080501020301018C
:10054E000501010102020701010601020102020575
:10055E000104050102020101030101040102070069
:10056E000201010400000005010106010101020162
:10057E000601020601010501010601010501010343
:10058E000101050105050101060101010201060136
:10059E000206010105010106010105010106010125
:1005AE000101050101010201010301010201010224
:1005BE000101020101010101020101010101060116
:1005CE0001030102020103050101060101010201FD
:1005DE0006010206010105010106010105010106E0
:1005EE0001010101050101010201010301010401E3
:1005FE0002040101050101060101060101050101C7
:10060E0006010201020106010301020106010105B4
:10061E0001010501040101010601010501050501A4
:10062E0001060101010201030101020101030101A1
:10063E00010106000000F2F3F5F5F6F7F8F9F9FA04
:10064E00FAFBFBFCFCFCFDFDFDFDFEFEFEFEFEFED0
:10065E00FEFF42C117B6D0D1B621E18CD868E95B56
:0E066E008FEE446BB4F42D4777A2B6DAFA167D
:0A0D7D000212000002080000C1018C
:1009A70020B245120CD420B23FC28CD290E5117010
:1009B7000B751101F50FF510D2008004B200D2902B
:1009C70020B225200004C28E80F6D28E7BFF7A00EB
:1009D700791E7D027F0B120C807BFF7A0079227DC6
:1009E70002E4FF120C8080D8209332E511602E12AA
:1009F7000CD4209325E5116021C28CD2901511E506
:100A070011D394005003751105E4F50FF5107FF429
:100A17007E01120CD8E4F508F5093093FD20B532B4
:100A2700E511602E120CD420B525E5116021C28C8A
:100A3700D2900511E511C394064003751101E4F541
:100A47000FF5107FF47E01120CD8E4F508F5093094
:100A5700B5FD20B34E120CD420B348C28CD290B24D
:100A67000120B33F3001147BFF7A0079287D017F95
:100A770001120C80E4F508F50980E6C28E7BFF7A47
:100A87000079367D01E4FF120C807BFF7A0079360E
:100A97007D02E4FF120C80751101E4F50FF510C219
:040AA7000080BE22EB
:100CF800758911758D3C758BB0D2ABD2A9C28ED2D5
:0C0D0800AF120CAF12067C1209A780F895
:040CD4007F057E001A
:100CD800E4FDFCC3ED9FEC9E5015E4FBFA0BBB0052
:0F0CE800010AEB647B4A70F50DBD00010C80E43E
:010CF70022DA
:020C35008F141A
:100C3700E4F515E515C39514503CE4F519F518F5D9
:100C470017F516E47F647E19FDFCAB19AA18A917DE
:100C5700A816C3120C24501A1209A7E5192401F586
:100C670019E43518F518E43517F517E43516F516B0
:080C770080D1051580BDC28C7F
:010C7F002252
:03000B00020D885B
:090D8800B290850B8C850E8A32B5
:03001B00020B379E
:100B3700C0E0C0F0C083C082C0D075D000C000C084
:100B470001C002C003C004C005C006C007758D3CC4
:100B5700758BB00513E51370020512641445127006
:100B670033F512F5130509E50970020508AE08FF0C
:100B77007C007D0A120BCFAB077D027F0E120D2C76
:100B8700AE08AF097C007D0A120BCFAB057D027F53
:100B97000F120D2CD007D006D005D004D003D002F9
:0F0BA700D001D000D0D0D082D083D0F0D0E032B7
:0D000E00850B8C850E8AD28CAF0A020C3552
:10067C00E5116401600302071E20000302071E201F
:10068C00010302071EAB117D027F05120D2C74486D
:10069C002510F5827400350FF583E49375F007A4EB
:1006AC00FF74472510F5827400350FF583E4937CB5
:1006BC00002FFFEC35F0CF24FFF50DEF34FFF50CD8
:1006CC00FE7444250DF58274063EF583E493F50B18
:1006DC007460250DF58274063EF583E493F50E7473
:1006EC00492510F5827400350FF583E493F50A74EF
:1006FC00032510F510E4350FF50FC3E50C64809459
:10070C0080500CE4F50FF510F508F509751102127F
:10071C00000EE511640260030207C020000302070B
:10072C00C02001030207C0AB117D027F05120D2C06
:10073C0074292510F5827401350FF583E49375F057
:10074C0007A4FF74282510F5827401350FF583E496
:10075C00937C002FFFEC35F0CF24FFF50DEF34FF29
:10076C00F50CFE7444250DF58274063EF583E49376
:10077C00F50B7460250DF58274063EF583E493F554
:10078C000E742A2510F5827401350FF583E493F568
:10079C000A74032510F510E4350FF50FC3E50C644E
:1007AC00809480500CE4F50FF510F508F5097511DF
:1007BC000312000EE51164036003020862200003BB
:1007CC00020862200103020862AB117D027F051250
:1007DC000D2C74E32510F5827401350FF583E49329
:1007EC0075F007A4FF74E22510F5827401350FF53E
:1007FC0083E4937C002FFFEC35F0CF24FFF50DEF55
:10080C0034FFF50CFE7444250DF58274063EF58319
:10081C00E493F50B7460250DF58274063EF583E4C4
:10082C0093F50E74E42510F5827401350FF583E40D
:10083C0093F50A74032510F510E4350FF50FC3E595
:10084C000C64809480500CE4F50FF510F508F50954
:10085C0075110412000EE5116404600302090420F2
:10086C000003020904200103020904AB117D027F7D
:10087C0005120D2C74FA2510F5827402350FF583D0
:10088C00E49375F007A4FF74F92510F58274023512
:10089C000FF583E4937C002FFFEC35F0CF24FFF5AC
:1008AC000DEF34FFF50CFE7444250DF58274063EF5
:1008BC00F583E493F50B7460250DF58274063EF513
:1008CC0083E493F50E74FB2510F5827402350FF555
:1008DC0083E493F50A74032510F510E4350FF50F36
:1008EC00C3E50C64809480500CE4F50FF510F5080A
:1008FC00F50975110512000EE51164056003020976
:10090C00A62000030209A62001030209A6AB117D53
:10091C00027F05120D2C74602510F5827403350FBF
:10092C00F583E49375F007A4FF745F2510F58274CA
:10093C0003350FF583E4937C002FFFEC35F0CF24C7
:10094C00FFF50DEF34FFF50CFE7444250DF58274A4
:10095C00063EF583E493F50B7460250DF582740661
:10096C003EF583E493F50E74612510F5827403351E
:10097C000FF583E493F50A74032510F510E4350F95
:10098C00F50FC3E50C64809480500CE4F50FF51062
:0B099C00F508F50975110112000E228C
:100D4400D3EF9400EE9400400DE4FD0DBD96FCEF4E
:060D54001F70ED1E80EA95
:010D5A002276
:100CAF007F38120D5B7F38120D5B7F38120D5B7F23
:100CBF000C120D5B7F06120D5B7F01120D5B7F64C3
:050CCF007E00020D444F
:100D5B008F80C2A0C2A1D2A2C2A27F017E00020DCF
:010D6B004443
:100D6C008F80D2A0C2A1D2A2C2A27F017E00020DAE
:010D7C004432
:020D1400AE0728
:100D1600EEBD01052480FC800324C0FCAF04120D47
:060D26005BAF03020D6C3F
:100D2C00EFBD01052480FC800324C0FCAF04120D30
:080D3C005BEB2430FF020D6C9B
:100C80008F1A8D1B8B1C8A1D891EAB1CAA1DA91EC9
:100C9000120BB66019051EE51E7002051D14F9122F
:0F0CA0000BB6FBAD1BAF1A120D14051A80DC2228
:03000000020AAB46
:0C0AAB00787FE4F6D8FD758120020AF285
:100BB600BB010689828A83E0225002E722BBFE023D
:090BC600E32289828A83E4932270
:100BCF00BC000BBE0029EF8DF084FFADF022E4CC0A
:100BDF00F875F008EF2FFFEE33FEEC33FCEE9DECD3
:100BEF00984005FCEE9DFE0FD5F0E9E4CEFD22ED19
:100BFF00F8F5F0EE8420D21CFEADF075F008EF2F63
:100C0F00FFED33FD4007985006D5F0F222C398FD53
:050C1F000FD5F0EA22F0
:100C2400EB9FF5F0EA9E42F0E99D42F0E89C45F026
:010C3400229D
:100AB700020CF8E493A3F8E493A34003F68001F251
:100AC70008DFF48029E493A3F85407240CC8C33340
:100AD700C4540F4420C8834004F456800146F6DF0F
:100AE700E4800B0102040810204080900D7DE47E15
:100AF700019360BCA3FF543F30E509541FFEE49304
:100B0700A360010ECF54C025E060A840B8E493A3CA
:100B1700FAE493A3F8E493A3C8C582C8CAC583CAF5
:100B2700F0A3C8C582C8CAC583CADFE9DEE780BEAD
:010D8700006B
:00000001FF
