:03000000022FB616
:0C2FB600787FE4F6D8FD758107022FFD3E
:10319100C2918F807F017E001231A2D2937F057E82
:0131A100002D
:1031A200D3EF9400EE9400400F7D327C01DCFEDD13
:0831B200FAEF1F70EB1E80E82C
:0131BA0022F2
:0A320100C293C292123191C29322CF
:0A320B00C293D292123191C29322B5
:1031BB007F381232017F0C1232017F061232017FEF
:0931CB00011232017F8002320181
:1028160031003130303030303030303030303030E0
:102826003030002E0077656C636F6D6521212121A4
:1028360000302020202020202020202000616E73E0
:102846003D20202020202020202020202000202085
:102856002020202020202020202020202020003082
:102866002020202020202020202020202020200082
:102876000000000000000000000000000000000052
:102886000000000000000000000000000000000042
:102896000000000000000000000000000000000032
:1028A6000000000000000000000000000000000022
:1028B6000000000000000000000000000000000012
:1028C6000000000000000000000000000000000002
:1028D60000000000000000000000000000000000F2
:1028E60000000000000000000000000000000000E2
:1028F60000000000000000000000000000000000D2
:1029060000000000000000000000000000000000C1
:1029160000000000000000000000000000000000B1
:1029260000000000000000000000000000000000A1
:102936000000000000000000000000000000000091
:102946000000000000000000000000000000000081
:102956000000000000000000000000000000000071
:102966000000000000000000000000000000000061
:102976000000000000000000000000000000000051
:102986000000000000000000000000000000000041
:102996000000000000000000000000000000000031
:1029A6000000000000000000000000000000000021
:1029B6000000000000000000000000000000000011
:1029C6000000000000000000000000000000000001
:1029D60000000000000000000000000000000000F1
:1029E60000000000000000000000000000000000E1
:1029F60000000000000000000000000000000000D1
:102A060000000000000000000000000000000000C0
:102A160000000000000000000000000000000000B0
:102A260000000000000000000000000000000000A0
:072A36000000000000000099
:1030FA00500137000000000000000000000000003E
:10310A00000000500147000000000000000000001D
:10311A0000000000000050015700000000000000FD
:10312A0000000000000000000050016700000000DD
:0C313A0000000000000000000000000089
:0B31F600EF1FAC0670011E4C70F622AB
:102C5D00900033E0F9A3E0FAA3E09000B3C9F0A32C
:102C6D00EAF0A3E9F090002EE0FBA3E0FAA3E0F96F
:0B2C7D009000B0EBF0A3EAF0A3E9F038
:102C8800E49000B8F0A3F01231D49000B6EFF090C1
:102C980000B3E0FBA3E0FAA3E0F91231D49000B747
:102CA800EFF09000B6E0FED39F40037F0122900032
:102CB800B7E06E6003022D5B9000B3E0FBA3E0FA7F
:102CC800A3E0F99000B8E0FEA3E0FFF5828E83123E
:102CD80026F6FD9000B0E0FBA3E0FAA3E0F98F82AE
:102CE8008E831226F6B505259000B7E0FFC3900045
:102CF800B9E09F7480F89000B8E0648098500EA303
:102D0800E004F070B39000B8E004F080AB9000B736
:102D1800E0FF7E00A3E0FCA3E0FDB50707EEB504E5
:102D2800037F00229000B3E0FBA3E0FAA3E0F98D53
:102D3800828C831226F6FF9000B0E0FBA3E0FAA392
:102D4800E0F98D828C831226F6D39F40037F0122FF
:052D58007FFF227FFF58
:012D5D002253
:10236300900033E0F9A3E0FAA3E09000B3C9F0A32F
:10237300EAF0A3E9F0A37401F0A37400F0743BA3A3
:0C238300F090002EE0FBA3E0FAA3E0F9CC
:0B238F009000B0EBF0A3EAF0A3E9F02F
:10239A00E49000BAF078BB7C007D017BFF7A287953
:1023AA0076FE7F141226B778CF7C007D017BFF7AF8
:1023BA0028798A7E007F141226B79000B0E0FBA32A
:1023CA00E0FAA3E0F91231D49000E3EEF0A3EFF0C3
:1023DA009000B3E0FBA3E0FAA3E0F91231D4900035
:1023EA00E5EEF0A3EFF09000E3A3E0149000B9F05B
:1023FA009000B9E0FFC364809480403A9000B0E056
:10240A00FBA3E0FAA3E0F9EF3395E08F82F583129C
:10241A0026F624D0FF9000BAE0FE04F0EEFD3395D4
:10242A00E0FC74BB2DF58274003CF583EFF090005C
:10243A00B9E014F080BAE49000BAF09000E5A3E0A5
:10244A00149000B9F09000B9E0FFC3648094804012
:10245A003A9000B3E0FBA3E0FAA3E0F9EF3395E08A
:10246A008F82F5831226F624D0FF9000BAE0FE048C
:10247A00F0EEFD3395E0FC74CF2DF58274003CF547
:10248A0083EFF09000B9E014F080BAE49000BAF05B
:10249A009000B9F09000E5E0FEA3E0FF9000E3E0D1
:1024AA00FCA3E0FDD39FEE6480F8EC6480984006BC
:1024BA00AE04AF058000EF2401FFE43EFE9000B9B0
:1024CA00E0FDFB3395E0FAC3EB9FEE6480F8EA6423
:1024DA008098400302255EEDFF3395E0FE74CF2F0E
:1024EA00F58274003EF583E0FC74BB2FF58274001C
:1024FA003EF583E02CF0EDFF3395E0FE74BB2FF53B
:10250A008274003EF583E0C36480948A402690007A
:10251A00B9E0FD74BB2FF58274003EF583E024F622
:10252A00F0EDFF3395E0FE74BC2FF58274003EF5A2
:10253A0083E004F09000B9E0FF3395E0FE74BB2F0E
:10254A00F58274003EF583E02430F09000B9E0048F
:10255A00F002249E7B017A0079BB1231D4EF1490E9
:10256A0000B9F09000B9E0FF3395E0FE74BB2FF597
:10257A008274003EF583E0B430089000B9E014F0AC
:10258A0080E17E007F147D009000B6E0FBA3E0FAB4
:10259A00A3E0F91227D49000B9E0FFC364809480C5
:1025AA00403AEF3395E0FE74BB2FF58274003EF596
:1025BA0083E0FF9000B6E0FBA3E0FAA3E0F9900005
:1025CA00BAE0FD3395E08D82F583EF12273590004E
:0C25DA00BAE004F09000B9E014F080BA00
:0125E60022D2
:1020DD00900033E0F9A3E0FAA3E09000B3C9F0A3B8
:1020ED00EAF0A3E9F0A37401F0A37400F0743BA32C
:0C20FD00F090002EE0FBA3E0FAA3E0F955
:0B2109009000B0EBF0A3EAF0A3E9F0B7
:10211400E49000BAF078BB7C007D017BFF7A2879DB
:102124009EFE7F141226B778CF7C007D017BFF7A58
:102134002879B27E007F141226B79000B0E0FBA38A
:10214400E0FAA3E0F91231D49000E3EEF0A3EFF04B
:102154009000B3E0FBA3E0FAA3E0F91231D49000BD
:10216400E5EEF0A3EFF09000E3A3E0149000B9F0E3
:102174009000B9E0FFC364809480403A9000B0E0DE
:10218400FBA3E0FAA3E0F9EF3395E08F82F5831225
:1021940026F624D0FF9000BAE0FE04F0EEFD33955D
:1021A400E0FC74BB2DF58274003CF583EFF09000E5
:1021B400B9E014F080BAE49000BAF09000E5A3E02E
:1021C400149000B9F09000B9E0FFC364809480409B
:1021D4003A9000B3E0FBA3E0FAA3E0F9EF3395E013
:1021E4008F82F5831226F624D0FF9000BAE0FE0415
:1021F400F0EEFD3395E0FC74CF2DF58274003CF5D0
:1022040083EFF09000B9E014F080BAE49000BAF0E3
:102214009000B9F09000E5E0FEA3E0FF9000E3E059
:10222400FCA3E0FDD39FEE6480F8EC648098400644
:10223400AE04AF0580009000B9E0FDFB3395E0FAF1
:10224400C3EB9FEE6480F8EA64809840030222DACC
:10225400EDFF3395E0FE74BB2FF58274003EF583E9
:10226400C083C082E0FD74CF2FF58274003EF583F5
:10227400E0FFC3ED9FD082D083F09000B9E0FFFD72
:102284003395E0FC74BB2DF58274003CF583E0C308
:1022940064809480502074BB2DF58274003CF583D7
:1022A400E0240AF0EF3395E0FE74BC2FF58274004D
:1022B4003EF583E014F09000B9E0FF3395E0FE743E
:1022C400BB2FF58274003EF583E02430F09000B912
:1022D400E004F00222187B017A0079BB1231D4EFBA
:1022E400149000B9F09000B9E0FF3395E0FE74BBA0
:1022F4002FF58274003EF583E0B430089000B9E015
:1023040014F080E17E007F147D009000B6E0FBA312
:10231400E0FAA3E0F91227D49000B9E0FFC3648087
:102324009480403AEF3395E0FE74BB2FF58274003D
:102334003EF583E0FF9000B6E0FBA3E0FAA3E0F9EA
:102344009000BAE0FD3395E08D82F583EF122735D6
:0E2354009000BAE004F09000B9E014F080BAF6
:012362002258
:0D1D9F00A3F0900051E0FBA3E0FAA3E0F9EF
:0B1DAC009000AEEBF0A3EAF0A3E9F01A
:101DB70078B77C007D017BFF7A2879C67E007F504B
:101DC7001226B778077C017D017BFF7A2979167E79
:101DD700007F141226B7781B7C017D017BFF7A29CF
:101DE700792A7E007F141226B79000AEE0FBA3E0AD
:101DF700FAA3E0F91231D490012FEEF0A3EFF0909F
:101E070000B1E0FBA3E0FAA3E0F91231D49001316D
:101E1700EEF0A3EFF090012FE0FCA3E0FD2FFFEC25
:101E27003E900133F0A3EFF0E4900136F0ED14900B
:101E37000135F0900135E0FFC364809480403A900B
:101E470000AEE0FBA3E0FAA3E0F9EF3395E08F8261
:101E5700F5831226F624D0FF900136E0FE04F0EE5B
:101E6700FD3395E0FC74072DF58274013CF583EF93
:101E7700F0900135E014F080BAE4900136F090015B
:101E870031A3E014900135F0900135E0FFC3648081
:101E97009480403A9000B1E0FBA3E0FAA3E0F9EFA9
:101EA7003395E08F82F5831226F624D0FF90013612
:101EB700E0FE04F0EEFD3395E0FC741B2DF5827413
:101EC700013CF583EFF0900135E014F080BAE4901F
:101ED7000135F0900135E0FF3395E0FED3900130F6
:101EE700E09FEE6480F890012FE064809850030231
:101EF7001F8CE4900136F0900136E0FBFF3395E04C
:101F0700FED3900132E09FEE6480F8900131E064E7
:101F170080984068EB3395E0FE741B2FF5827401BF
:101F27003EF583E0FD3395E0FC900135E0FAFF33A1
:101F370095E0FE74072FF58274013EF583E0FF33C9
:101F470095E0FE122757AC06AD07EBFF3395E0FE91
:101F5700EAFB3395E0FAEB2FFFEA3EFEEF25E0FFC1
:101F6700EE33FE74B72FF58274003EF583EC8DF0E7
:101F77001227BE900136E004F0021EFE900135E004
:101F870004F0021EDAE4900135F0900135E0FF33EA
:101F970095E0FED3900134E09FEE6480F890013322
:101FA700E06480985003022060EF25E0FFEE33FEE7
:101FB70074B72FF58274003EF583E0FEA3E0C39467
:101FC7000AEE94004069900135E0FF3395E0FEEF9B
:101FD70025E0FBEE33FA74B72BF58274003AF583EC
:101FE700E0FEA3E0FF7C007D0A12276974B92BF598
:101FF7008274003AF583EE8FF01227BE900135E028
:10200700FF3395E0FEEF25E0FFEE33FE74B72FF5C3
:102017008274003EF583C083C082E0FEA3E0FF7CAC
:10202700007D0A122769D082D083ECF0A3EDF090EF
:102037000135E0FF3395E0FEEF25E0FFEE33FE7458
:10204700B72FF58274003EF583E475F0301227BE92
:10205700900135E004F0021F91E4900136F0900101
:1020670033A3E014FFA3F03395E0FEEF25E0FFEE86
:1020770033FE74B72FF58274003EF583E0FEA3E0CC
:1020870064304E70028046900135E0FFC36480944F
:10209700804042EF3395E0FEEF25E0FFEE33FE741C
:1020A700B72FF58274003EF583A3E0FF9000B4E0FC
:1020B700FBA3E0FAA3E0F9900136E0FD3395E08D4C
:1020C70082F583EF122735900136E004F090013551
:0520D700E014F080B2EE
:0120DC0022E1
:0B19E90090004FEBF0A3EAF0A3E9F040
:1019F400785A7C007D017BFF7A29793E7E007F1432
:101A04001226B7786E7C007D017BFF7A2979527E9D
:101A1400007F141226B778827C007D017BFF7A292F
:101A240079667E007F141226B778967C007D017B50
:101A3400FF7A29797A7E007F141226B7900052E04B
:101A4400F9A3E0FAA3E09000B3C9F0A3EAF0A3E994
:101A5400F090004F122C75EF700F900055E0FBA32F
:101A6400E0FAA3E0F974318046900052E0F9A3E073
:101A7400FAA3E09000B3C9F0A3EAF0A3E9F0900060
:101A84004F122C75C3EF64809480502690004FE071
:101A9400FBA3E0FAA3E0F91231D49000AAEEF0A37C
:101AA400EFF0900055E0FBA3E0FAA3E0F9743002F4
:101AB4002723E4900058F090004FE0FBA3E0FAA342
:101AC400E0F9900058E0F5827583001226F6B430F0
:101AD40008900058E004F080DEE4900059F0900093
:101AE4004FE0FBA3E0FAA3E0F91231D4900058E0F0
:101AF400C39FE49E503390004FE0FBA3E0FAA3E0C1
:101B0400F9900058E0F5827583001226F6FF9000E4
:101B140059E0FE04F0745A2EF582E43400F583EFA4
:101B2400F0900058E004F080B5900052E0F9A3E092
:101B3400FAA3E09000B3C9F0A3EAF0A3E9F07B01B3
:101B44007A00795A122C7DC3EF648094805003028A
:101B54001D467E007F147D007B017A00796E12277A
:101B6400D4E4900058F0900052E0FBA3E0FAA3E024
:101B7400F9900058E0F5827583001226F6B4300817
:101B8400900058E004F080DEE4900059F090005298
:101B9400E0FBA3E0FAA3E0F91231D4900058E0C3CB
:101BA4009FE49E5033900052E0FBA3E0FAA3E0F9D7
:101BB400900058E0F5827583001226F6FF900059D4
:101BC400E0FE04F0746E2EF582E43400F583EFF049
:101BD400900058E004F080B57B017A00796E1231F0
:101BE400D4C006C0077B017A00795A1231D4AC06FE
:101BF400AD07D007D006C3ED9FFFEC9ECF24FFCFE7
:101C040034FF9000ACF0A3EFF07B017A00796E1200
:101C140031D49000AEEEF0A3EFF0E4900058F090D1
:101C24000058E0FF7E00D39000ADE09F7480F890F0
:101C340000ACE064809840219000AFE02FFF90005A
:101C4400AEE03EFE746E2FF58274003EF583743070
:101C5400F0900058E004F080C69000B37401F0A343
:101C64007400F0A3746EF07B017A00795A122C7D13
:101C7400C3EF6480948040469000B37401F0A37471
:101C840000F0A3746EF0A37401F0A37400F0A374C5
:101C94005AF07B017A00F91221099000B374FFF025
:101CA400A37428F0A37416F0A37401F0A37400F0D5
:101CB400A37482F07B017A00F912238F809B7B014D
:101CC4007A0079821231D49000AEEEF0A3EFF0E402
:101CD400900058F0900058E0FF7E00D39000ADE0F3
:101CE4009F7480F89000ACE064809840219000AF2D
:101CF400E02FFF9000AEE03EFE74822FF582740068
:101D04003EF5837430F0900058E004F080C69000F3
:101D1400B37401F0A37400F0A37482F0A37401F00F
:101D2400A37400F0A37496F07B017A00F912238F58
:101D34007E007F147D007B017A0079821227D40211
:101D44001B2D7B017A0079961231D49000AAEEF013
:101D5400A3EFF0E4900058F0900058E0FFD3900017
:101D6400ABE09F7480F89000AAE0648098402B90C8
:101D74000058E02496F582E43400F583E0FE9000F8
:101D840055E0FBA3E0FAA3E0F98F82758300EE121D
:0A1D94002735900058E004F080BEEF
:011D9E002222
:1000030090002CEFF0A3EDF0A3EBF0A3EAF0A3E94B
:01001300F0FC
:10001400783B7C007D017BFF7A29798E7E007F14FA
:100024001226B7784F7C007D017BFF7A2979A27E66
:10003400007F141226B7900031E0FF90002CE06F8F
:100044006003020387A3E07029900032E07023A3C9
:10005400E0F9A3E0FAA3E09000B3C9F0A3EAF0A3A7
:10006400E9F0A37401F0A37400F0744F1223820228
:1000740002B7900032E0FF90002DE0C39F500302CE
:100084000198900033E0FBA3E0FAA3E0F91231D425
:1000940090003AEFF0E4900039F0900032E0FF90E5
:1000A400002DE0C39FFF900039E0FEC3EF6480F8A9
:1000B400EE6480985029EEFF3395E0FEA3E02FFF15
:1000C400E43EFE900033E0FBA3E0FAA3E0F98F8264
:1000D4008E837430122735900039E004F080BB120F
:1000E40023637B017A00793B1231D490003AEFF01C
:1000F400E4900039F090002DE0FF90003AE0FEC358
:100104009FF9900039E0FDC3E96480F8ED648098BC
:100114005025ED3395E0FC743B2DF58274003CF5DD
:1001240083E0FB744F2DF58274003CF583EBF09073
:100134000039E004F080BEEFFDEEC39DFFE49400BF
:10014400FE744F2FF58274003EF583742EF09000F8
:1001540039E9F090003AE0FF900039E0FD3395E092
:10016400FCC3ED9F7480F86C9840030202B7E0FF73
:100174003395E0FE743B2FF58274003EF583E0FF77
:1001840074502DF58274003CF583EFF0900039E053
:1001940004F080BF90002DE0FF900032E0D39F5028
:1001A400030202B790002EE0FBA3E0FAA3E0F912E9
:1001B40031D490003AEFF0E4900039F090002DE053
:1001C400FF900032E0C39FFF900039E0FEC3EF646C
:1001D40080F8EE6480985029EEFF3395E0FEA3E0AA
:1001E4002FFFE43EFE90002EE0FBA3E0FAA3E0F92B
:1001F4008F828E837430122735900039E004F080AA
:10020400BB1223637B017A00793B1231D490003A0C
:10021400EFF0E4900039F0900032E0FF90003AE013
:10022400FEC39FF9900039E0FDC3E96480F8ED64F2
:1002340080985025ED3395E0FC743B2DF5827400D5
:100244003CF583E0FB744F2DF58274003CF583EBA1
:10025400F0900039E004F080BEEFFDEEC39DFFE4B2
:100264009400FE744F2FF58274003EF583742EF0D3
:10027400900039E9F090003AE0FF900039E0FD3356
:1002840095E0FCC3ED9F7480F86C985026E0FF3332
:1002940095E0FE743B2FF58274003EF583E0FF7415
:1002A400502DF58274003CF583EFF0900039E004A2
:1002B400F080C27B017A00794F1231D490003AEF7A
:1002C400F090002CE064017069900036E0FBA3E03C
:1002D400FAA3E0F9742D122723E4900039F090007A
:1002E4003AE0FF900039E0FD3395E0FCC3ED9F74E4
:1002F40080F86C9840030211C1E0FF3395E0FC7470
:100304004F2DF58274003CF583E0FEEF3395E0FC5D
:10031400ED2401FDE43CFC900036E0FBA3E0FAA3ED
:10032400E0F98D828C83EE122735900039E004F0D9
:1003340080ACE4900039F090003AE0FF900039E09E
:10034400FD3395E0FCC3ED9F7480F86C9840030284
:1003540011C1E0FF3395E0FC744F2DF58274003C2D
:10036400F583E0FE900036E0FBA3E0FAA3E0F9EFAA
:100374003395E08D82F583EE122735900039E00441
:10038400F080B4900031E0FF90002CE0D39F500344
:10039400020AA6A3E060030204E0900032E06003D6
:1003A4000204E0A3122C60EF6401600302044C9089
:1003B4000033E0F9A3E0FAA3E09000B3C9F0A3EAA4
:1003C400F0A3E9F0A37401F0A37400F0744F1220B9
:1003D400FC7B017A00794F1231D490003AEFF0900F
:1003E4000036E0FBA3E0FAA3E0F9742D122723E41E
:1003F400900039F090003AE0FF900039E0FD339529
:10040400E0FCC3ED9F7480F86C9840030211C1E0D6
:10041400FF3395E0FC744F2DF58274003CF583E0C6
:10042400FEEF3395E0FCED2401FDE43CFC90003646
:10043400E0FBA3E0FAA3E0F98D828C83EE1227356A
:10044400900039E004F080AC122C5DD3EF6480940A
:100454008040030211C190002EE0F9A3E0FAA3E06A
:100464009000B3C9F0A3EAF0A3E9F0A37401F0A3E8
:100474007400F0A3744FF09000331221017B017AD1
:1004840000794F1231D490003AEFF0E4900039F043
:1004940090003AE0FF900039E0FD3395E0FCC3EDB5
:1004A4009F7480F86C9840030211C1E0FF3395E01B
:1004B400FC744F2DF58274003CF583E0FE90003609
:1004C400E0FBA3E0FAA3E0F9EF3395E08D82F58336
:1004D400EE122735900039E004F080B4900032E049
:1004E400FF90002DE0C39F50030207C4900033E047
:1004F400FBA3E0FAA3E0F91231D490003AEFF0E460
:10050400900039F0900032E0FF90002DE0C39FFF8F
:10051400900039E0FEC3EF6480F8EE6480985029BF
:10052400EEFF3395E0FEA3E02FFFE43EFE900033A0
:10053400E0FBA3E0FAA3E0F98F828E8374301227E4
:1005440035900039E004F080BB122C5DEF6401604B
:10055400030206811220DD7B017A00793B1231D43B
:1005640090003AEFF0E4900039F090002DE0FF9015
:10057400003AE0FEC39FF9900039E0FDC3E96480CE
:10058400F8ED6480985025ED3395E0FC743B2DF52F
:100594008274003CF583E0FB744F2DF58274003CBB
:1005A400F583EBF0900039E004F080BEEFFDEEC37C
:1005B4009DFFE49400FE744F2FF58274003EF58392
:1005C400742EF0900039E9F090003AE0FF90003981
:1005D400E0FD3395E0FCC3ED9F7480F86C985026E1
:1005E400E0FF3395E0FE743B2FF58274003EF58303
:1005F400E0FF74502DF58274003CF583EFF0900019
:1006040039E004F080C27B017A00794F1231D49032
:10061400003AEFF0900036E0FBA3E0FAA3E0F974AF
:100624002D122723E4900039F090003AE0FF900067
:1006340039E0FD3395E0FCC3ED9F7480F86C98407D
:10064400030211C1E0FF3395E0FC744F2DF5827471
:10065400003CF583E0FEEF3395E0FCED2401FDE47E
:100664003CFC900036E0FBA3E0FAA3E0F98D828C19
:1006740083EE122735900039E004F080AC122C5D33
:10068400D3EF6480948040030211C190002EE0F9FE
:10069400A3E0FAA3E09000B3C9F0A3EAF0A3E9F061
:1006A400A37401F0A37400F0A3743BF09000331220
:1006B40021017B017A00793B1231D490003AEFF0AA
:1006C400E4900039F090002DE0FF90003AE0FEC382
:1006D4009FF9900039E0FDC3E96480F8ED648098E7
:1006E4005025ED3395E0FC743B2DF58274003CF508
:1006F40083E0FB744F2DF58274003CF583EBF0909E
:100704000039E004F080BEEFFDEEC39DFFE49400E9
:10071400FE744F2FF58274003EF583742EF0900022
:1007240039E9F090003AE0FF900039E0FD3395E0BC
:10073400FCC3ED9F7480F86C985026E0FF3395E07D
:10074400FE743B2FF58274003EF583E0FF74502D58
:10075400F58274003CF583EFF0900039E004F080FA
:10076400C27B017A00794F1231D490003AEFF0E461
:10077400900039F090003AE0FF900039E0FD3395A5
:10078400E0FCC3ED9F7480F86C9840030211C1E053
:10079400FF3395E0FC744F2DF58274003CF583E043
:1007A400FE900036E0FBA3E0FAA3E0F9EF3395E016
:1007B4008D82F583EE122735900039E004F080B481
:1007C400900032E0FF90002DE0C39F40030211C16E
:1007D400A3E0FBA3E0FAA3E0F91231D490003AEFCE
:1007E400F0E4900039F090002DE0FF900032E0C377
:1007F4009FFF900039E0FEC3EF6480F8EE648098B8
:100804005029EEFF3395E0FEA3E02FFFE43EFE9077
:10081400002EE0FBA3E0FAA3E0F98F828E8374300C
:10082400122735900039E004F080BB122C5DEF6490
:100834000160030209631220DD7B017A00793B1217
:1008440031D490003AEFF0E4900039F0900032E0B7
:10085400FF90003AE0FEC39FF9900039E0FDC3E940
:100864006480F8ED6480985025ED3395E0FC743B8A
:100874002DF58274003CF583E0FB744F2DF58274F2
:10088400003CF583EBF0900039E004F080BEEFFD0E
:10089400EEC39DFFE49400FE744F2FF58274003E76
:1008A400F583742EF0900039E9F090003AE0FF905F
:1008B4000039E0FD3395E0FCC3ED9F7480F86C983B
:1008C4005026E0FF3395E0FE743B2FF58274003E22
:1008D400F583E0FF74502DF58274003CF583EFF04E
:1008E400900039E004F080C27B017A00794F123124
:1008F400D490003AEFF0900036E0FBA3E0FAA3E0D6
:10090400F9742D122723E4900039F090003AE0FFA7
:10091400900039E0FD3395E0FCC3ED9F7480F86CE2
:100924009840030211C1E0FF3395E0FC744F2DF5AC
:100934008274003CF583E0FEEF3395E0FCED240186
:10094400FDE43CFC900036E0FBA3E0FAA3E0F98D63
:10095400828C83EE122735900039E004F080AC12CB
:100964002C5DD3EF6480948040030211C190002E6B
:10097400E0F9A3E0FAA3E09000B3C9F0A3EAF0A37E
:10098400E9F0A37401F0A37400F0A3743BF09000A9
:10099400331221017B017A00793B1231D490003A61
:1009A400EFF0E4900039F0900032E0FF90003AE07C
:1009B400FEC39FF9900039E0FDC3E96480F8ED645B
:1009C40080985025ED3395E0FC743B2DF58274003E
:1009D4003CF583E0FB744F2DF58274003CF583EB0A
:1009E400F0900039E004F080BEEFFDEEC39DFFE41B
:1009F4009400FE744F2FF58274003EF583742EF03C
:100A0400900039E9F090003AE0FF900039E0FD33BE
:100A140095E0FCC3ED9F7480F86C985026E0FF339A
:100A240095E0FE743B2FF58274003EF583E0FF747D
:100A3400502DF58274003CF583EFF0900039E0040A
:100A4400F080C27B017A00794F1231D490003AEFE2
:100A5400F0E4900039F090003AE0FF900039E0FDB6
:100A64003395E0FCC3ED9F7480F86C984003021149
:100A7400C1E0FF3395E0FC744F2DF58274003CF522
:100A840083E0FE900036E0FBA3E0FAA3E0F9EF3345
:100A940095E08D82F583EE122735900039E004F05D
:100AA40080B4900031E0FF90002CE0C39F4003022B
:100AB40011C1A3E06003020BFF900032E060030267
:100AC4000BFFA3122C60C3EF648094805003020BCD
:100AD40057900033E0F9A3E0FAA3E09000B3C9F023
:100AE400A3EAF0A3E9F0A37401F0A37400F0A374E3
:100AF4004F1220FD7B017A00794F1231D490003AD5
:100B0400EFF0E4900039F090003AE0FF900039E013
:100B1400FD3395E0FCC3ED9F7480F86C98400302AC
:100B240011C1E0FF3395E0FC744F2DF58274003C55
:100B3400F583E0FE900036E0FBA3E0FAA3E0F9EFD2
:100B44003395E08D82F583EE122735900039E00469
:100B5400F080B4122C5DEFF460030211C190002EFA
:100B6400E0F9A3E0FAA3E09000B3C9F0A3EAF0A38C
:100B7400E9F0A37401F0A37400F0A3744FF09000A3
:100B8400331221017B017A00794F1231D490003A5B
:100B9400EFF0900036E0FBA3E0FAA3E0F9742D1225
:100BA4002723E4900039F090003AE0FF900039E008
:100BB400FD3395E0FCC3ED9F7480F86C984003020C
:100BC40011C1E0FF3395E0FC744F2DF58274003CB5
:100BD400F583E0FEEF3395E0FCED2401FDE43CFCFD
:100BE400900036E0FBA3E0FAA3E0F98D828C83EE5B
:100BF400122735900039E004F080AC900032E0FF19
:100C040090002DE0C39F5003020EE2900033E0FBFE
:100C1400A3E0FAA3E0F91231D490003AEFF0E490A3
:100C24000039F0900032E0FF90002DE0C39FFF9068
:100C34000039E0FEC3EF6480F8EE6480985029EE3A
:100C4400FF3395E0FEA3E02FFFE43EFE900033E087
:100C5400FBA3E0FAA3E0F98F828E83743012273568
:100C6400900039E004F080BB122C5DC3EF648094E3
:100C7400805003020D8B1220DD7B017A00793B1238
:100C840031D490003AEFF0E4900039F090002DE078
:100C9400FF90003AE0FEC39FF9900039E0FDC3E9FC
:100CA4006480F8ED6480985025ED3395E0FC743B46
:100CB4002DF58274003CF583E0FB744F2DF58274AE
:100CC400003CF583EBF0900039E004F080BEEFFDCA
:100CD400EEC39DFFE49400FE744F2FF58274003E32
:100CE400F583742EF0900039E9F090003AE0FF901B
:100CF4000039E0FD3395E0FCC3ED9F7480F86C98F7
:100D04005026E0FF3395E0FE743B2FF58274003EDD
:100D1400F583E0FF74502DF58274003CF583EFF009
:100D2400900039E004F080C27B017A00794F1231DF
:100D3400D490003AEFF0E4900039F090003AE0FFEC
:100D4400900039E0FD3395E0FCC3ED9F7480F86CAE
:100D54009840030211C1E0FF3395E0FC744F2DF578
:100D64008274003CF583E0FE900036E0FBA3E0FAD9
:100D7400A3E0F9EF3395E08D82F583EE12273590E9
:100D84000039E004F080B4122C5DEFF4600302112A
:100D9400C190002EE0F9A3E0FAA3E09000B3C9F0FB
:100DA400A3EAF0A3E9F0A37401F0A37400F0A37420
:100DB4003BF09000331221017B017A00793B123120
:100DC400D490003AEFF0E4900039F090002DE0FF69
:100DD40090003AE0FEC39FF9900039E0FDC3E96456
:100DE40080F8ED6480985025ED3395E0FC743B2D3C
:100DF400F58274003CF583E0FB744F2DF58274009A
:100E04003CF583EBF0900039E004F080BEEFFDEE9A
:100E1400C39DFFE49400FE744F2FF58274003EF5E9
:100E240083742EF0900039E9F090003AE0FF9000CE
:100E340039E0FD3395E0FCC3ED9F7480F86C985065
:100E440026E0FF3395E0FE743B2FF58274003EF5F7
:100E540083E0FF74502DF58274003CF583EFF0902D
:100E64000039E004F080C27B017A00794F1231D45A
:100E740090003AEFF0900036E0FBA3E0FAA3E0F92B
:100E8400742D122723E4900039F090003AE0FF908B
:100E94000039E0FD3395E0FCC3ED9F7480F86C9855
:100EA40040030211C1E0FF3395E0FC744F2DF5823D
:100EB40074003CF583E0FEEF3395E0FCED2401FD86
:100EC400E43CFC900036E0FBA3E0FAA3E0F98D8259
:100ED4008C83EE122735900039E004F080AC90004A
:100EE40032E0FF90002DE0C39F40030211C1A3E054
:100EF400FBA3E0FAA3E0F91231D490003AEFF0E456
:100F0400900039F090002DE0FF900032E0C39FFF85
:100F1400900039E0FEC3EF6480F8EE6480985029B5
:100F2400EEFF3395E0FEA3E02FFFE43EFE90002E9B
:100F3400E0FBA3E0FAA3E0F98F828E8374301227DA
:100F440035900039E004F080BB122C5DEF64016041
:100F5400030210691220DD7B017A00793B1231D43F
:100F640090003AEFF0E4900039F0900032E0FF9006
:100F7400003AE0FEC39FF9900039E0FDC3E96480C4
:100F8400F8ED6480985025ED3395E0FC743B2DF525
:100F94008274003CF583E0FB744F2DF58274003CB1
:100FA400F583EBF0900039E004F080BEEFFDEEC372
:100FB4009DFFE49400FE744F2FF58274003EF58388
:100FC400742EF0900039E9F090003AE0FF90003977
:100FD400E0FD3395E0FCC3ED9F7480F86C985026D7
:100FE400E0FF3395E0FE743B2FF58274003EF583F9
:100FF400E0FF74502DF58274003CF583EFF090000F
:1010040039E004F080C27B017A00794F1231D49028
:10101400003AEFF0E4900039F090003AE0FF9000DD
:1010240039E0FD3395E0FCC3ED9F7480F86C984083
:10103400030211C1E0FF3395E0FC744F2DF5827477
:10104400003CF583E0FE900036E0FBA3E0FAA3E069
:10105400F9EF3395E08D82F583EE12273590003950
:10106400E004F080B4122C5DD3EF648094804003DC
:101074000211C190002EE0F9A3E0FAA3E09000B3BE
:10108400C9F0A3EAF0A3E9F0A37401F0A37400F09B
:10109400A3743BF09000331221017B017A00793B69
:1010A4001231D490003AEFF0E4900039F09000321D
:1010B400E0FF90003AE0FEC39FF9900039E0FDC3E1
:1010C400E96480F8ED6480985025ED3395E0FC7474
:1010D4003B2DF58274003CF583E0FB744F2DF582C3
:1010E40074003CF583EBF0900039E004F080BEEF2F
:1010F400FDEEC39DFFE49400FE744F2FF58274004F
:101104003EF583742EF0900039E9F090003AE0FF48
:10111400900039E0FD3395E0FCC3ED9F7480F86CDA
:10112400985026E0FF3395E0FE743B2FF58274005F
:101134003EF583E0FF74502DF58274003CF583EF97
:10114400F0900039E004F080C27B017A00794F12FC
:1011540031D490003AEFF0900036E0FBA3E0FAA31C
:10116400E0F9742D122723E4900039F090003AE05E
:10117400FF900039E0FD3395E0FCC3ED9F7480F8E7
:101184006C985039E0FF3395E0FC744F2DF5827470
:10119400003CF583E0FEEF3395E0FCED2401FDE433
:1011A4003CFC900036E0FBA3E0FAA3E0F98D828CCE
:0D11B40083EE122735900039E004F080AF83
:0111C100220B
:10314700C002C001900024E0FEC374019E900031CC
:10315700F0900025E0900032F0900026E0F9A3E01F
:10316700FAA3E0900033C9F0A3EAF0A3E9F09000D6
:1031770029E0F9A3E0FAA3E0900036C9F0A3EAF04A
:0A318700A3E9F0D001D0020200031A
:102A3D0090004FEFF0A3EDF0A3EBF0A3EAF0A3E9C4
:012A4D00F098
:102A4E00785E7C007D017BFF7A2979B67E007F2837
:102A5E001226B778867C007D017BFF7A2979DE7E8F
:102A6E00007F281226B7900050E07029900055E0A4
:102A7E007023A3E0F9A3E0FAA3E09000B1C9F0A39C
:102A8E00EAF0A3E9F0A37401F0A37400F0748612C7
:102A9E001D9F022B8C900056E0F9A3E0FAA3E09064
:102AAE0000B1C9F0A3EAF0A3E9F0A37401F0A37496
:102ABE0000F0745E121D9F7B017A00795E1231D494
:102ACE0090005DEFF0E490005CF0900050E0FF901D
:102ADE00005DE0FEC39FFD900055E0F9C3ED99FD4A
:102AEE0090005CE0FCC3ED6480F8EC6480985026A6
:102AFE00ECFD3395E0FC745E2DF58274003CF5839D
:102B0E00E0FB74862DF58274003CF583EBF09000AB
:102B1E005CE004F080B4EFFDEEC39DFDE49400FC98
:102B2E00E9FBC3ED9BFDEC9400FC74862DF58274DD
:102B3E00003CF583742EF0C3EE9FC39990005CF0B9
:102B4E0090005DE0FF90005CE0FD3395E0FCC3ED8E
:102B5E009F7480F86C985026E0FF3395E0FE745E0B
:102B6E002FF58274003EF583E0FF74872DF5827495
:102B7E00003CF583EFF090005CE004F080C27B0136
:102B8E007A0079861231D490005DEFF0900054E017
:102B9E00FF90004FE06F705090005CF090005DE091
:102BAE00FF90005CE0FD3395E0FCC3ED9F7480F870
:102BBE006C984003022C5CE0FF3395E0FC74862D8C
:102BCE00F58274003CF583E0FE900059E0FBA3E033
:102BDE00FAA3E0F9EF3395E08D82F583EE122735F7
:102BEE0090005CE004F080B4900059E0FBA3E0FAA2
:102BFE00A3E0F9742D122723E490005CF090005DA1
:102C0E00E0FF90005CE0FD3395E0FCC3ED9F748027
:102C1E00F86C985039E0FF3395E0FC74862DF58200
:102C2E0074003CF583E0FEEF3395E0FCED2401FDEE
:102C3E00E43CFC900059E0FBA3E0FAA3E0F98D829E
:0E2C4E008C83EE12273590005CE004F080AF1E
:012C5C002255
:102D5E0090001FEFF0A3EDF0A3EBF0A3EAF0A3E9D0
:012D6E00F074
:102D6F00E4782C7C007D017BFF7A2A7906FE7F0FA9
:102D7F001226B7783B7C007D017BFF7A2A79157E7E
:102D8F00007F141226B7900026E0F9A3E0FAA3E023
:102D9F00900052C9F0A3EAF0A3E9F0A37401F0A3E5
:102DAF007400F0A3743BF07BFF7A2879181219E9AD
:102DBF007B017A00793B1231D4AE07E4FFC3741064
:102DCF009EC36480F8EF6480985016EFFD3395E052
:102DDF00FC742C2DF58274003CF5837430F00F8059
:102DEF00DC9000527401F0A37400F0A3743BF07BED
:102DFF00017A00792C12304290001FE0FFA3E0FD12
:102E0F00900024E0900054F0900025E0FEC3740F72
:102E1F009E900055F0A37401F0A37400F0A3742CDE
:102E2F00F0900029E0F9A3E0FAA3E0900059C9F06F
:102E3F00A3EAF0A3E9F0900021E0FBA3E0FAA3E0FE
:042E4F00F9022A3D1D
:0B11C20090001FEBF0A3EAF0A3E9F09F
:1011CD00E4A3F0A374C0F090002774FFF0A374287B
:1011DD00F0A37429F0122E53EA494B602190001FA1
:1011ED00E0FBA3E0FAA3E0F9A3E0F582758300121A
:1011FD0026F6642E601B900022E004F080DF900044
:10120D001FE0FBA3E0FAA3E0F91231D4900022EF26
:10121D00F0900022E0D3941050030215D690001FD9
:10122D00E0FBA3E0FAA3E0F91226DD642D90002384
:10123D006003021404E0FF04F012320190001FE07D
:10124D00FBA3E0FAA3E0F91226DDFF12320B9000AA
:10125D0023E0FF04F012320190001FE0FBA3E0FA3F
:10126D00A3E0F99000011226F6FF12320B90002335
:10127D00E0FF04F01232017F2E12320B900023E0BA
:10128D00FF04F012320190001FE0FBA3E0FAA3E08F
:10129D00F99000021226F6FF12320B900023E0FFA8
:1012AD0004F012320190001FE0FBA3E0FAA3E0F975
:1012BD009000031226F6FF12320B900023E0FF047C
:1012CD00F012320190001FE0FBA3E0FAA3E0F990C9
:1012DD0000041226F6FF12320B900023E0FF04F0FB
:1012ED0012320190001FE0FBA3E0FAA3E0F9900099
:1012FD00051226F6FF12320B900023E0FF04F012C8
:10130D00320190001FE0FBA3E0FAA3E0F990000684
:10131D001226F6FF12320B900023E0FF04F012327A
:10132D000190001FE0FBA3E0FAA3E0F99000071283
:10133D0026F6FF12320B900023E0FF04F01232016B
:10134D0090001FE0FBA3E0FAA3E0F990000812263D
:10135D00F6FF12320B900023E0FF04F012320190E1
:10136D00001FE0FBA3E0FAA3E0F99000091226F6B6
:10137D00FF12320B900023E0FF04F01232019000B7
:10138D001FE0FBA3E0FAA3E0F990000A1226F6FF96
:10139D0012320B900023E0FF04F012320190001F77
:1013AD00E0FBA3E0FAA3E0F990000B1226F6FF1282
:1013BD00320B900023E0FF04F01232017F651232F0
:1013CD000B900023E0FF04F0123201900022E02484
:1013DD00FEFFE434FFFE7C007D0A122769EF243006
:1013ED00FF12320B900023E0FF04F0123201900047
:1013FD0022E024FE0215C3E0FF04F012320190003A
:10140D001FE0FBA3E0FAA3E0F91226DDFF12320B79
:10141D00900023E0FF04F01232017F2E12320B9068
:10142D000023E0FF04F012320190001FE0FBA3E067
:10143D00FAA3E0F99000011226F6FF12320B90008C
:10144D0023E0FF04F012320190001FE0FBA3E0FA4D
:10145D00A3E0F99000021226F6FF12320B90002342
:10146D00E0FF04F012320190001FE0FBA3E0FAA3AD
:10147D00E0F99000031226F6FF12320B900023E0E4
:10148D00FF04F012320190001FE0FBA3E0FAA3E08D
:10149D00F99000041226F6FF12320B900023E0FFA4
:1014AD0004F012320190001FE0FBA3E0FAA3E0F973
:1014BD009000051226F6FF12320B900023E0FF0478
:1014CD00F012320190001FE0FBA3E0FAA3E0F990C7
:1014DD0000061226F6FF12320B900023E0FF04F0F7
:1014ED0012320190001FE0FBA3E0FAA3E0F9900097
:1014FD00071226F6FF12320B900023E0FF04F012C4
:10150D00320190001FE0FBA3E0FAA3E0F990000880
:10151D001226F6FF12320B900023E0FF04F0123278
:10152D000190001FE0FBA3E0FAA3E0F9900009127F
:10153D0026F6FF12320B900023E0FF04F012320169
:10154D0090001FE0FBA3E0FAA3E0F990000A122639
:10155D00F6FF12320B900023E0FF04F012320190DF
:10156D00001FE0FBA3E0FAA3E0F990000B1226F6B2
:10157D00FF12320B900023E0FF04F01232017F6561
:10158D0012320B900023E0FF04F012320190002282
:10159D00E024FFFFE434FFFE7C007D0A122769EF93
:1015AD002430FF12320B900023E0FF04F0123201C1
:1015BD00900022E024FFFFE434FFFE7C007D0A1240
:1015CD002769ED2430FF02320B90001FE0FBA3E0F2
:0915DD00FAA3E0F97F011230B11C
:0115E60022E2
:1015E700E4900000F0A3F0A3F0A3F0A3F078057C4B
:1015F700007D017BFF7A2A7929FE7F141226B7E442
:10160700900019F0A3F0A3F0A3F0A3F0A3F0123118
:10161700BB7A28792B1230AD7F307E751231F67A7E
:101627002879371230AD7F307E751231F6122F12BE
:10163700900000EFF0F4700302197BE0FFC36480B1
:10164700948C40030217DD900019E060030217161F
:10165700EFB40B20900001E0701AE0FF04F074571C
:101667002FF582E43401F583742DF090001D740189
:10167700F002170B900000E0640A703390002774A3
:10168700FFF0A37428F0A37429F07B017A0179573E
:10169700122E53E94A706D900001E06067FF04F075
:1016A70074572FF582E43401F583742EF08055903A
:1016B7000000E0640B604D90002774FFF0A37428CE
:1016C700F0A37429F07B017A017957122E53EA4966
:1016D7004B600690001BE004F0900000E02430FF10
:1016E700A3E0FE04F074572EF582E43401F583EF8E
:1016F700F0900003E0FE04F074372EF582E4340125
:10170700F583EFF07B017A017957E4FF0217D79051
:101717000000E0B40B20900002E0701AE0FF04F034
:1017270074672FF582E43401F583742DF090001E61
:101737007401F00217CF900000E0640A7033900044
:101747002774FFF0A37428F0A37429F07B017A01B2
:101757007967122E53E94A706F900002E06069FFC3
:1017670004F074672FF582E43401F583742EF0805A
:1017770057900000E0640B604F90002774FFF0A3C0
:101787007428F0A37429F07B017A017967122E532C
:10179700EA494B600690001CE004F0900000E0244A
:1017A70030FF900002E0FE04F074672EF582E43407
:1017B70001F583EFF0900004E0FE04F074472EF586
:1017C70082E43401F583EFF07B017A0179677F01C9
:1017D7001230B102197B900000E0FFD36480948C33
:1017E700404C900003E0D39400404390001AEFF080
:1017F70024F0601524FD601A24FD601F240970255C
:101807007F8F1232017F2B80197F8F1232017F2D3C
:1018170080107F8F1232017F2A80077F8F1232015B
:101827007F2F12320B9000197401F002197B900080
:1018370000E0640C600302197B900004E0D394007D
:10184700500302197B90001AE024F0605324FD70C6
:10185700030218E424FD700302192124096003021E
:10186700195C90001DE0FF90001BE0FD90001EE05A
:10187700900031F090001CE0900032F0A37401F06A
:10188700A37401F0A37447F0A37401F0A37400F0EC
:10189700A37405F07B017A01793712000302195C02
:1018A70090001DE0FF90001BE0FD90001EE09000FF
:1018B70024F090001CE0900025F0A37401F0A374BD
:1018C70001F0A37447F0A37401F0A37400F0A374AC
:1018D70005F07B017A017937123147807890001D36
:1018E700E0FF90001BE0FD90001EE0900054F09098
:1018F700001CE0900055F0A37401F0A37401F0A35D
:101907007447F0A37401F0A37400F0A37405F07B8F
:10191700017A017937122A3D803B90001DE0FF9044
:10192700001BE0FD90001EE0900024F090001CE0FA
:10193700900025F0A37401F0A37401F0A37447F09D
:10194700A37401F0A37400F0A37405F07B017A017E
:101957007937122D5E7BFF7A287943E4FF1230B185
:101967007BFF7A2879547F011230B17B017A0079A5
:10197700051211C2900000E0640E60030216347F66
:1019870014900157E4F0A3DFFC7F14900167E4F0A3
:10199700A3DFFC7F14900137E4F0A3DFFC7F1490F2
:1019A7000147E4F0A3DFFC7F14900005E4F0A3DF18
:1019B700FCE4900001F0A3F0A3F0A3F0900019F06D
:1019C700A3F0A3F0A3F0A3F0A3F07BFF7A28796537
:1019D700FF1230B17BFF7A2879547F011230B102B0
:0219E7001634B4
:0430AD007BFFE4FFC2
:1030B100900025EBF0A3EAF0A3E9F0900024EFF0F3
:1030C100E4900028F0EF70047F808009900024E0F4
:1030D100B401057FC0123201900025E0FBA3E0FAA4
:1030E100A3E0F91226DDFF600F12320B900026E4F7
:0830F10075F0011227BE80E01A
:0130F90022B4
:0C31E9007F017E8E7D02DDFEDEFADFF647
:0131F50022B7
:102F120075A0F0E5A064F0607A1231E9E5A064F0F2
:102F22006071AFA0EF2490602424C0601824E06098
:102F32000C24F0701E90001F7401F0801690001F88
:102F42007402F0800E90001F7403F0800690001F40
:102F5200740DF075A00FAFA0EF24F9601D24FC6082
:102F62001024FE600314801990001FE02403F080F7
:102F72001090001FE02406F0800790001FE0240953
:102F8200F0E5A0B40FFB90001FE0FF640B6001228C
:102F92007F002220B00C1231E920B00630B0FD7F54
:102FA2000B2220B10C1231E920B10630B1FD7F0EA7
:032FB200227FFF7C
:012FB50022F9
:102FC2000215E7E493A3F8E493A34003F68001F229
:102FD20008DFF48029E493A3F85407240CC8C33310
:102FE200C4540F4420C8834004F456800146F6DFDF
:102FF200E4800B01020408102040809030FAE47E45
:10300200019360BCA3FF543F30E509541FFEE493D3
:10301200A360010ECF54C025E060A840B8E493A39A
:10302200FAE493A3F8E493A3C8C582C8CAC583CAC5
:10303200F0A3C8C582C8CAC583CADFE9DEE780BE7D
:013146000088
:1025E700E709F608DFFA8046E709F208DFFA803ED6
:1025F70088828C83E709F0A3DFFA8032E309F608C3
:10260700DFFA8078E309F208DFFA807088828C832A
:10261700E309F0A3DFFA806489828A83E0A3F608DE
:10262700DFFA805889828A83E0A3F208DFFA804CB8
:1026370080D280FA80C680D4806980F2803380108F
:1026470080A680EA809A80A880DA80E280CA8033F8
:1026570089828A83ECFAE493A3C8C582C8CCC58370
:10266700CCF0A3C8C582C8CCC583CCDFE9DEE78040
:102677000D89828A83E493A3F608DFF9ECFAA9F0BF
:10268700EDFB2289828A83ECFAE0A3C8C582C8CC15
:10269700C583CCF0A3C8C582C8CCC583CCDFEADE2E
:1026A700E880DB89828A83E493A3F208DFF980CC90
:1026B70088F0EF60010E4E60C388F0ED2402B40489
:1026C7000050B9F582EB2402B4040050AF23234530
:0626D700822390263773F8
:1026DD00BB010689828A83E0225002E722BBFE02FB
:0926ED00E32289828A83E493222E
:1026F600BB010CE58229F582E5833AF583E0225099
:1027060006E92582F8E622BBFE06E92582F8E222E2
:0D271600E58229F582E5833AF583E49322FC
:10272300BB010689828A83F0225002F722BBFE0195
:02273300F3228F
:10273500F8BB010DE58229F582E5833AF583E8F0DA
:10274500225006E92582C8F622BBFE05E92582C886
:02275500F2226E
:10275700EF8DF0A4A8F0CF8CF0A428CE8DF0A42E96
:02276700FE2250
:10276900BC000BBE0029EF8DF084FFADF022E4CC54
:10277900F875F008EF2FFFEE33FEEC33FCEE9DEC1D
:10278900984005FCEE9DFE0FD5F0E9E4CEFD22ED63
:10279900F8F5F0EE8420D21CFEADF075F008EF2FAD
:1027A900FFED33FD4007985006D5F0F222C398FD9E
:0527B9000FD5F0EA223B
:1027BE00C5F0F8A3E028F0C5F0F8E58215827002A6
:0627CE001583E038F02243
:1030420090004FEBF0A3EAF0A3E9F0900055EBF00B
:10305200A3EAF0A3E9F090004FE0FBA3E475F001CE
:10306200122800A9F0FA1226DD70EB90005074FFCE
:10307200F5F01227BE900052E0FBA3E475F00112B6
:103082002800A9F0FA1226DDFF90004FE0FBA3E42E
:1030920075F001122800A9F0FAEF12272370D690DA
:0B30A2000055E0FBA3E0FAA3E0F922D8
:1031D400E4FFFE1226DD600C0FEF70010E09E970AA
:0531E400F20A80EF2259
:102E5300900024EBF0A3EAF0A3E9F0A3E0FBA3E0E6
:102E6300FAA3E0F91226DD7003022EFF900024E09E
:102E7300FBA3E0FAA3E0F91226DD7003022F0B9007
:102E83000027E0F9A3E0FAA3E0A3C9F0A3EAF0A3C3
:102E9300E9F0900024A3E0FAA3E0F990002DEBF011
:102EA300A3EAF0A3E9F090002AE0FBA3E0FAA3E091
:102EB300F91226DDFF602690002DE0FBA3E0FAA3C4
:102EC300E0F91226DD6F701590002B75F0011227C3
:102ED300BE90002EE475F0011227BE80C990002A2F
:102EE300E0FBA3E0FAA3E0F91226DD7002800D9067
:102EF3000025E475F0011227BE022E6F900024E036
:0F2F0300FBA3E0FAA3E0F9227B007A0079002219
:1027D400EF4E6012EF60010EEDBB010B89828A831C
:1027E400F0A3DFFCDEFA2289F05007F709DFFCA929
:0C27F400F022BBFEFCF309DFFCA9F02280
:10280000A3F8E0C5F025F0F0E5821582700215838B
:06281000E0C838F0E822E8
:00000001FF
