:0308B80001090033
:1008A300EF1FAC0670011E4C600A7D027CEFDCFE7C
:0408B300DDFC80ECFC
:0108B700221E
:10088C007F0A7E001208A320900575080180F120D4
:07089C0091EE75080280E9EE
:03000000020800F3
:0C080000787FE4F6D8FD758109020847F6
:10080C0002088CE493A3F8E493A34003F68001F26E
:10081C0008DFF48029E493A3F85407240CC8C333ED
:10082C00C4540F4420C8834004F456800146F6DFBC
:10083C00E4800B01020408102040809008B8E47E8C
:10084C00019360BCA3FF543F30E509541FFEE493B1
:10085C00A360010ECF54C025E060A840B8E493A378
:10086C00FAE493A3F8E493A3C8C582C8CAC583CAA3
:10087C00F0A3C8C582C8CAC583CADFE9DEE780BE5B
:0108BB00003C
:00000001FF
