:0C0C67002B002D002A002F002E003D0065
:10056E00E4F50AF50BF50CF50DF50E750F01F5100A
:10057E00F511F515F514F513F512120C33120827B3
:10058E008F08E508641060F5E508C3940A5075AF4E
:10059E0015AE14AD13AC12E4FBFA792078411200BB
:1005AE00FB8F158E148D138C12AB15AA14A913A8DC
:1005BE0012C000C001C002C003E50875F00A84AC89
:1005CE00F0E4120324D003D002D001D00012000AAE
:1005DE008F158E148D138C12050BE50B7002050A08
:1005EE00AD0F8F438E428513418C407F01120971EE
:1005FE00AF15AE14AD13AC12E50D25E025E02416B3
:10060E00F81204947409C39508400302074CE508D8
:10061E00C3940F400302074C0511E511700205103B
:10062E00E4F515F514F513F512050BE50B7002053F
:10063E000A2401F50FE4350AF50ED3E5119401E510
:10064E00106480948050030206F9E50924F5602EAB
:10065E0014604C14606A240360030206F9AF0DEFB8
:10066E0025E025E02416F8120487C000EF25E025CA
:10067E00E02412F812047BD00012000A8061E50D0E
:10068E0025E025E02416F8120487C000E50D25E0CC
:10069E0025E02412F812047BD0001200068040AF31
:1006AE000DEF25E025E02416F8120487C000EF2593
:1006BE00E025E02412F812047BD0001200FB801F0C
:1006CE00E50D25E025E02416F8120487C000E50D9F
:1006DE0025E025E02412F812047BD000120204E576
:1006EE000D25E025E02416F8120494050DE50D7095
:1006FE0002050C850809E50824F5601714601E1420
:10070E00602514602C24047035AD0B7BFF7A0C79B8
:10071E00678026AD0B7BFF7A0C7969801CAD0B7B55
:10072E00FF7A0C796B8012AD0B7BFF7A0C796D80A2
:10073E0008AD0B7BFF7A0C796F7F01120BBFE508BA
:10074E00640F600302058B050BE50B7002050AFDB5
:10075E007BFF7A0C79717F01120BBFE50924F560DE
:10076E002E14604C14606A2403600302080AAF0D55
:10077E00EF25E025E02416F8120487C000EF25E0EF
:10078E0025E02412F812047BD00012000A8061E5E5
:10079E000D25E025E02416F8120487C000E50D258E
:1007AE00E025E02412F812047BD0001200068040EF
:1007BE00AF0DEF25E025E02416F8120487C000EFF8
:1007CE0025E025E02412F812047BD0001200FB80F5
:1007DE001FE50D25E025E02416F8120487C000E57C
:1007EE000D25E025E02412F812047BD0001202043D
:1007FE00E50D25E025E02416F8120494E50D25E01C
:10080E0025E02416F812047B8F438E428D418C40D6
:09081E007D017F0212097180FEC8
:100C4700AE071FEE600A7E027DEFDDFEDEFC80F060
:010C5700227A
:060C5800C2A58F80D2A7A7
:080C5E007F027EEFDEFEDFFCE9
:010C6600226B
:0A0C7F00C2A6120C58C2A7020C5EB8
:100BE200CFCDCFCECCCE1204187C007D0A120418D1
:040BF200ED2430FFBF
:0A0BF600D2A6120C58C2A7020C5E32
:100C1D00AE07BE0104ED148006BE0209ED243F446B
:060C2D0080FF120C7F2283
:100C33007F38120C7F7F0C120C7F7F06120C7F7F94
:040C430001020C7F1F
:0A0C8900AC03120C1DAF04020BF6C1
:060BBF008B3E8A3F8940D5
:100BC500120C1DE4FDAB3EAA3FA9408D8275830042
:0C0BD5001203D9FF6006120BF60D80E938
:010BE10022F1
:0C0B8C00EA7F0A24FFFDE434FFFC7E0039
:080B98008E548F558C568D57C9
:100BA0007F017E00E4FBEBC39557E5566480F87443
:0E0BB0008098500AAC54AD551204060B80E834
:010BBE002214
:040C00008A618B6218
:100C0400120C1DAA63EAD39400400D120B8CAC6144
:080C1400AD62120BE21A80ED43
:010C1C0022B5
:100AE000120C1DC3EA64809480400B7F2B120BF61E
:100AF0008A5D8B5E800E7F2D120BF6C3E49BF55E44
:100B0000E49AF55DAA5CEAD39400400D120B8CAC1C
:090B10005DAD5E120BE21A80EDEE
:010B190022B9
:040B1A008A668B67F5
:100B1E00120C1DAA68EAD39400402AEA7F10120B29
:100B2E008FAC66AD67CFCDCFCECCCE120418EF54BE
:100B3E000FFEC3940AEE5004243080022437FF12B5
:050B4E000BF61A80D037
:010B5300227F
:040B54008A6B8B6CB1
:100B5800120C1DAA6DEAD394004028EA24FFFDE494
:100B680034FFFC7F027E00120B98AC6BAD6CCFCDCE
:100B7800CFCECCCE120418EF54012430FF120BF65E
:030B88001A80D2FE
:010B8B002247
:040971008F3E8D3FE9
:10097500E4F545F546F54785434B85424A854149AA
:1009850085404885434F85424E85414D85404CAF56
:1009950043AE42AD41AC40120358EF4E601EAF432B
:1009A500AE42AD41AC40E4FBFA7920784112020435
:1009B5008F438E428D418C40054680D3AF4BAE4A66
:1009C500AD49AC48120358AD07AC06EC12031FA89D
:1009D50004A905AA06AB07AF4BAE4AAD49AC481210
:1009E5000006E4FBFAF9F81202A16023AF4BAE4A08
:1009F500AD49AC48E4FBFA792078411200FB8F4BF6
:100A05008E4A8D498C480545E545C3940340ADE5BF
:100A150045FD7C007F0A7E00120B98AC06AD07EC05
:100A250012031FAB4FAA4EA94DA84C1200FB12038F
:100A3500588F538E528D518C50AD3FAF3E120C1DC9
:100A4500E5462545F544E544D394004049E547701E
:100A55000AE544B545057F30120BF6E544B5450575
:100A65007F2E120BF6E544120B8DAB07AA06EA336F
:100A750095E0F9F8AF53AE52AD51AC50120A9CE473
:100A85007B0AFAF9F8120A9CEB2430FF120BF67573
:060A95004701154480B08A
:010A9B002238
:10082700753E107590FFC2932097107F14120C47E6
:100837003097FD7F14120C47753E012096107F14E8
:10084700120C473096FD7F14120C47753E04209515
:10085700107F14120C473095FD7F14120C47753E1C
:10086700072094107F14120C473094FD7F14120C4C
:1008770047E4F53E7590FFC2922097107F14120C43
:10088700473097FD7F14120C47753E022096107F64
:1008970014120C473096FD7F14120C47753E052045
:1008A70095107F14120C473095FD7F14120C477575
:1008B7003E082094107F14120C473094FD7F1412C9
:1008C7000C47753E0E7590FFC2912097107F14124A
:1008D7000C473097FD7F14120C47753E0320961086
:1008E7007F14120C473096FD7F14120C47753E0695
:1008F7002095107F14120C473095FD7F14120C477A
:10090700753E092094107F14120C473094FD7F1414
:10091700120C47753E0F7590FFC2902097107F14F9
:10092700120C473097FD7F14120C47753E0A20962C
:10093700107F14120C473096FD7F14120C47753E3A
:100947000B2095107F14120C473095FD7F14120C65
:1009570047753E0C2094107F14120C473094FD7F8E
:0909670014120C47753E0DAF3E61
:010970002264
:100003000203C4E86480F8E933E83360110460F064
:10001300ED33EC337009E8FCE9FDEAFEEBFF220463
:1000230060DED3EB9FEA9EE99DE8C2E78CF0C2F75E
:1000330095F0400CE8CCF8E9CDF9EACEFAEBCFFB2A
:1000430012038F85D0F05804700320D5B3E80470F1
:10005300075002B2D50203CE92D5EC0460F7E4CC8C
:10006300C0E0C398F8603B94186008400DD0E0FBF3
:100073000203A6E4FBFAC9FC8028E830E406E4C9DD
:10008300FBE4CAFCE830E305E4C9CACBFCE8540747
:100093006010F8C3E913F9EA13FAEB13FBEC13FC52
:1000A300D8F130F52FC3E49CFCEF9BFFEE9AFEEDF5
:1000B30099FDD0E0FBEF4E4D4C701222DB0302039F
:1000C300CBEC2CFCEF33FFEE33FEED33FDED30E7ED
:1000D300EB0203A6EF2BFFEE3AFEED39FDD0E0FB7A
:1000E30050130BBB00030203CEED13FDEE13FEEF23
:0800F30013FFEC13FC0203A64D
:1000FB00EC4D6011E8497017ED33EC3304600DE4FF
:10010B00FCFFFEFD22E933E8330470F80203C4124E
:10011B00038F58046009E4CC24815006285009024F
:10012B0003CE2840030203CBC0E0EB4A7044B980F6
:10013B0006D0E0FB0203BAEF4E701CBD8008EBFF4C
:10014B00EAFEE9FD80EBE98DF0A4FEE5F00201E4A7
:10015B00E9CDF9EAFEEBFFEF89F0A4FCE5F0CE89DF
:10016B00F0A42EFFE435F0CD89F0A42DFEE435F09C
:10017B008067EF4E7005BD80D780C3EF8BF0A4ACCA
:10018B00F0EE8BF0A42CFCE435F0F8EF8AF0A42C05
:10019B00E5F038FCE433CB8DF0A42CFCE5F03BF818
:1001AB00EE8AF0A42CFCE5F038F8E433CF89F0A408
:1001BB002CFCE5F038CF3400CE89F0A42FFFE5F00E
:1001CB003EFEE433C98DF0A42EFEE5F039CD8AF066
:1001DB00A42FFFE5F03EFEE43DFD33D0E0FB5007DE
:1001EB000BBB000F0203CEEC2CFCEF33FFEE33FE08
:0601FB00ED33FD0203A636
:100201000203CEEC5D046005E8590470030203C4E7
:1002110012038F580460F6EC4860F2EC7004FDFEA6
:10022100FF22C860DB2481C85009C39860025006D0
:100231000203CB9850CAF582E9294B4A7005AB827B
:100241000203BA75F0007C1A7880C3EF9BEE9AED39
:1002510099400DC3EF9BFFEE9AFEED99FDE842F048
:10026100DC23ACF0D0E0FFD0E0FED0E0FDAB82209B
:10027100E7101BEB60BAEC2CFCEF33FFEE33FEED25
:1002810033FD0203A6E803F830E705C0F075F0007E
:10029100EF2FFFEE33FEED33FD40B830E7C280AA09
:1002A10074F8CC6480CCC86480C8F58204604FC304
:1002B100EB9FF5F0EA9E42F0E99D42F0E89C45F0A3
:1002C100603C501DE5825FFFE582D313CB5BCBF42D
:1002D1002B5582FB50280ABA002409B90020088056
:1002E1001DE5825BFBE582D313CF5FCFF4C3132FF0
:1002F1005582FF50090EBE00050DBD00010CC3EB78
:100301009FF5F0EA9E42F0E99D42F0E89C45F060DD
:0903110007CC4820E701B3EC22FF
:10031A0075F020800E75F010800575F0087D007E5E
:10032A00007F003392D530D50312046DEC334010B0
:10033A00EF33FFEE33FEED33FDEC33FCD5F0ED2267
:0E034A00E5F0247EA2D513CC92E7CDCEFF22A3
:10035800EDD2E7CD33EC3392D524814006E4FFFE9D
:10036800FDFC22FCE4CFCECDCC24E0501174FF80FC
:10037800EDC3CC13CCCD13CDCE13CECF13CF047099
:07038800F030D5DE02046D28
:10038F00E9D2E7C933E833F892D5EDD2E7CD33ECB4
:07039F0033FC5002B2D5222D
:1003A600EC30E7100FBF000C0EBE00080DBD0004B8
:1003B6000BEB6014A2D5EB13FCED92E7FD2274FF64
:1003C600FCFDFEFF22E480F8A2D574FF13FC7D80BD
:0303D600E480EFD1
:03000000020C737C
:0C0C7300787FE4F6D8FD75816D02056EF7
:1003D900BB010CE58229F582E5833AF583E02250D9
:1003E90006E92582F8E622BBFE06E92582F8E22223
:0D03F900E58229F582E5833AF583E493223D
:10040600EF8DF0A4A8F0CF8CF0A428CE8DF0A42E0A
:02041600FE22C4
:10041800BC000BBE0029EF8DF084FFADF022E4CCC8
:10042800F875F008EF2FFFEE33FEEC33FCEE9DEC91
:10043800984005FCEE9DFE0FD5F0E9E4CEFD22EDD7
:10044800F8F5F0EE8420D21CFEADF075F008EF2F21
:10045800FFED33FD4007985006D5F0F222C398FD12
:050468000FD5F0EA22AF
:100A9C00C2D5E830E70FB2D5E4C39BFBE49AFAE485
:100AAC0099F9E498F8EC30E717B2D5120AD212048F
:100ABC00DCE4C39BFBE49AFAE499F9E498F880032C
:100ACC001204DC30D50DE4C39FFFE49EFEE49DFDD3
:040ADC00E49CFC2278
:0E046D00C3E49FFFE49EFEE49DFDE49CFC22A0
:0C047B00E6FC08E6FD08E6FE08E6FF22AD
:0D048700E6FB08E6F908E6FA08E6CBF822E5
:0C049400ECF608EDF608EEF608EFF62294
:1004A00075F008758200EF2FFFEE33FECD33CDCC13
:1004B00033CCC58233C5829BED9AEC99E582984096
:1004C0000CF582EE9BFEED9AFDEC99FC0FD5F0D673
:1004D000E4CEFBE4CDFAE4CCF9A88222B800C1B99D
:1004E0000059BA002DEC8BF084CFCECDFCE5F0CBDB
:1004F000F97818EF2FFFEE33FEED33FDEC33FCEB14
:1005000033FB10D703994004EB99FB0FD8E5E4F9CE
:10051000FA227818EF2FFFEE33FEED33FDEC33FCBB
:10052000C933C910D7059BE99A4007EC9BFCE99AAF
:10053000F90FD8E0E4C9FAE4CCFB2275F010EF2FF4
:10054000FFEE33FEED33FDCC33CCC833C810D707F4
:100550009BEC9AE899400AED9BFDEC9AFCE899F82F
:0E0560000FD5F0DAE4CDFBE4CCFAE4C8F922C2
:00000001FF
