:02198200300033
:10162C0082C00000820C0000821500008A170000A6
:10163C0000000000000000008A23000000000000F1
:10164C0000000000944300000000000000000000B7
:10165C0000000000000000000000942D00000000BD
:10166C00000000000000000000000000000000006E
:10167C0094C6000000000000000000000000000004
:10168C0000000000000082EC0000945C00000000F0
:10169C00000000000000000000000000000000003E
:0716AC0082110000815B20A8
:071844007800EEF208EFF25C
:10184B00E408F208F27801E225E0FF18E233FEC368
:10185B007803E29F18E29E5016B2A57F017E00121C
:0F186B0019237803E22401F218E23400F280D648
:01187A00224B
:1018A60078DEEEF2FC08EFF2FD78DCE2FE08E2FFFD
:1018B600D3EF9DEC6480F8EE648098400122AE047C
:0318C600AF052249
:1016B400EBF208EAF208E9F27BFE7A0079707D0A1F
:0216C4007C00A8
:1016C6007806ECF208EDF2E478C2F208F27806E267
:1016D600FE08E2FF78C2E2FC08E2FDC39FEE6480EA
:1016E600F8EC648098501DED25E0FFEC338F82F511
:1016F60083E4F5F012010578C3E22401F218E2341E
:0517060000F280C92281
:10111C007800EBF208EAF208E9F2E478C0F208F29F
:10112C0008F2087409F278C3E225E0FF18E233FEF6
:10113C007800E2FB08E2FA08E2F98F828E83120053
:10114C00CD45F0700D78C3E224FFF218E234FFF2C3
:10115C0080D478C4E4F2087409F278C5E225E0FF83
:10116C0018E233FE7803E2FB08E2FA08E2F98F8218
:10117C008E831200CD45F0700D78C5E224FFF21875
:10118C00E234FFF280D478C4E2FC08E2FD78C2E2DB
:10119C00FA08E2FBC39DEC6480F8EA648098500581
:1011AC007EFF7FFF22D3EB9DEC6480F8EA6480988D
:1011BC0040057E007F012278C2E2FE08E2FFC3EE0A
:1011CC0064809480500302126DEF25E0FFEE33FE35
:1011DC007803E2FB08E2FA08E2F98F828E831200B0
:1011EC00CDFDACF07800E2FB08E2FA08E2F98F8260
:1011FC008E831200CDD39DEC6480F8E5F06480986A
:10120C00400B78C0E4F20804F2FF7E002278C3E2BF
:10121C0025E0FF18E233FE7803E2FB08E2FA08E26D
:10122C00F98F828E831200CDFDACF07800E2FB08C2
:10123C00E2FA08E2F98F828E831200CDC39DEC6432
:10124C0080F8E5F0648098500A74FF78C0F208F2D8
:10125C00FFFE2278C3E224FFF218E234FFF20211FF
:09126C00C378C0E2FE08E2FF2293
:1014BD007806EBF208EAF208E9F2E478C2F208F2F3
:1014CD0078C2E2FE08E2FFC39414EE64809480506B
:1014DD0028EF25E0FFEE33FE7806E2FB08E2FA087E
:1014ED00E2F98F828E83E4F5F012010578C3E224D0
:1014FD0001F218E23400F280C778C2E4F2087409F0
:10150D00F278C3E225E0FF18E233FE7809E2FB082A
:10151D00E2FA08E2F98F828E831200CD45F0700D4C
:10152D0078C3E224FFF218E234FFF280D4E478C4E9
:10153D00F208F278C2E2FE08E2FF08E2FC08E2FDE2
:10154D00D39FEE6480F8EC648098503BED25E0FF6E
:10155D00EC33FE7809E2FB08E2FA08E2F98F828E9D
:10156D00831200CDFD7806E2FB08E2FA08E2F98F5E
:10157D00828E83E5F08DF012010578C5E22401F22B
:10158D0018E23400F280AC78C3E22401FF18E23493
:03159D0000FE222B
:100D610078001216B47A0079841216C27A00799842
:100D71007D147C001216C6E47821F208F27800E2B4
:100D8100FB08E2FA08E2F912193878DCEEF208EF12
:100D9100F27803E2FB08E2FA08E2F91219381218B4
:100DA100A67841EEF208EFF2E478C2F208F278DCBC
:100DB100E2FE08E2FF78C2E2FC08E2FDC39FEE64B6
:100DC10080F8EC6480985042EF24FFFFEE34FFCFAF
:100DD100C39DCF9CFE7800E2FB08E2FA08E2F98F9E
:100DE100828E83120003FF3395E0FEEF24D0FFEEE5
:100DF10034FFF8ED25E02470C8F208EFF278C3E281
:100E01002401F218E23400F280A4E478C2F208F27C
:100E110078DEE2FE08E2FF78C2E2FC08E2FDC39F51
:100E2100EE6480F8EC6480985042EF24FFFFEE34CA
:100E3100FFCFC39DCF9CFE7803E2FB08E2FA08E2F4
:100E4100F98F828E83120003FF3395E0FEEF24D0E9
:100E5100FFEE34FFF8ED25E02484C8F208EFF278C4
:100E6100C3E22401F218E23400F280A4E478C2F271
:100E710008F27841E2FE08E2FF78C2E2FA08E2FBFA
:100E8100C39FEE6480F8EA6480985077AF03EF2542
:100E9100E02484F8E2FC08E2FDEF25E02471F8E2A9
:100EA1002DFF18E23CFE7822E22FFF18E23EFE7C85
:100EB100007D0A120097AF03EF25E02498F8ECF2C9
:100EC10008EDF2EF25E02484F8E2FE08E2FF78C2A3
:100ED10008E225E02471F8E22FFF18E23EFE7822B5
:100EE100E22FFF18E23EFE7C007D0A120097782176
:100EF100EEF208EFF278C3E22401F218E23400F2D4
:100F0100020E737822E2700218E26018784108E25A
:100F1100FF2401F218E23400F2EF25E02498F8E40E
:100F2100F20804F27842E224FF79C3F318E234FFB5
:100F310019F378C2E2FE08E2FFC3EE6480948040B8
:100F41002BA907E925E02498F8E2FA08E2FB7841A9
:100F510008E2C399FD780A7401F27F021219097837
:0D0F6100C3E224FFF218E234FFF280C62242
:10043E0078001216B47A0079841216C27A0079986E
:10044E007D147C001216C6E47815F208F27800E2EC
:10045E00FB08E2FA08E2F912193878DCEEF208EF3E
:10046E00F27803E2FB08E2FA08E2F91219381218E0
:10047E00A67841EEF208EFF2E478C2F208F278DCE8
:10048E00E2FE08E2FF78C2E2FC08E2FDC39FEE64E2
:10049E0080F8EC6480985042EF24FFFFEE34FFCFDB
:1004AE00C39DCF9CFE7800E2FB08E2FA08E2F98FCA
:1004BE00828E83120003FF3395E0FEEF24D0FFEE11
:1004CE0034FFF8ED25E02470C8F208EFF278C3E2AD
:1004DE002401F218E23400F280A4E478C2F208F2A9
:1004EE0078DEE2FE08E2FF78C2E2FC08E2FDC39F7E
:1004FE00EE6480F8EC6480985042EF24FFFFEE34F7
:10050E00FFCFC39DCF9CFE7803E2FB08E2FA08E220
:10051E00F98F828E83120003FF3395E0FEEF24D015
:10052E00FFEE34FFF8ED25E02484C8F208EFF278F0
:10053E00C3E22401F218E23400F280A478DCE2FE79
:10054E0008E2FFD378DFE29FEE6480F5F018E264F4
:10055E008095F050030205FD78C0E4F20804F2E441
:10056E0008F208F27841E2FE08E2FF78C2E2FC08E7
:10057E00E2FDC39FEE6480F8EC64809840030206AF
:10058E00ADAF05EF25E02470F8E2FA08E2FBEF25A7
:10059E00E02485F8C3E29BFF18E29AFE7815E2FA92
:1005AE0008E2FBC3EF9BFFEE9AF8ED25E02498C816
:1005BE00F208EFF2ED25E02499F9C319E364809473
:1005CE008050187815E4F20804F2ED25E02499F82D
:1005DE00E2240AF218E23400F28006E47815F208FA
:1005EE00F278C3E22401F218E23400F2020572E45A
:1005FE0078C2F208F27841E2FE08E2FF78C2E2FC2D
:10060E0008E2FDC39FEE6480F8EC6480984003021C
:10061E0006ADAF05EF25E02484F8E2FA08E2FBEF21
:10062E0025E02471F8C3E29BFF18E29AFE7815E2EA
:10063E00FA08E2FBC3EF9BFFEE9AF8ED25E0249853
:10064E00C8F208EFF2ED25E02499F9C319E36480AE
:10065E009480503778C2E2FE08E2FF2401FDE43EAA
:10066E00FCD37842E29DEC6480F5F018E26480954C
:10067E00F040187815E4F20804F2EF25E02499F81A
:10068E00E2240AF218E23400F28006E47815F20849
:10069E00F278C3E22401F218E23400F20206037883
:1006AE004108E225E02497F9C319E3648094804061
:1006BE000302077878C0E4F20804F2E408F208F2C4
:1006CE007841E2FE08E2FF78C2E2FC08E2FDC39F39
:1006DE00EE6480F8EC6480984003020778AF05EF73
:1006EE0025E02470F8E2FA08E2FBEF25E02485F815
:1006FE00C3E29BFF18E29AFE7815E2FA08E2FBC30A
:10070E00EF9BFFEE9AF8ED25E02498C8F208EFF281
:10071E00ED25E02499F9C319E3648094805037786D
:10072E00C2E2FE08E2FF2401FDE43EFCD37842E281
:10073E009DEC6480F5F018E2648095F04018781511
:10074E00E4F20804F2EF25E02499F8E2240AF21804
:10075E00E23400F28006E47815F208F278C3E2245F
:10076E0001F218E23400F20206CE7841E2FE08E20F
:10077E00FF25E02497F9E3700219E37018D3EF9484
:10078E0001EE64809480400D7842E224FFF218E27C
:10079E0034FFF280D578C1E2700218E2704B7842D5
:1007AE00E224FF79C3F318E234FF19F378C2E2FEB4
:1007BE0008E2FFC3EE64809480500302084BA90741
:1007CE00E925E02498F8E2FA08E2FB784108E2C352
:1007DE0099FD780A7401F27F0212190978C3E22496
:1007EE00FFF218E234FFF280C37B2D7D017F0212EF
:1007FE00197A7842E224FFFE18E234FF78C2F2083A
:10080E00CEF278C2E2FE08E2FFC3EE64809480402E
:10081E002CA907E925E02498F8E2FA08E2FB7841D2
:10082E0008E2C39904FD780A7401F27F02121909D5
:0E083E0078C3E224FFF218E234FFF280C522F4
:100AD80078001216B47A0079841216C27A007998CE
:100AE8007D147C001216C6E47821F208F27800E240
:100AF800FB08E2FA08E2F912193878DCEEF208EF9E
:100B0800F27803E2FB08E2FA08E2F912193878DE13
:100B1800EEF208EFF2E478C2F208F278DCE2FE08BE
:100B2800E2FF78C2E2FC08E2FDC39FEE6480F8ECC5
:100B38006480985042EF24FFFFEE34FFCFC39DCF6F
:100B48009CFE7800E2FB08E2FA08E2F98F828E83C5
:100B5800120003FF3395E0FEEF24D0FFEE34FFF8D8
:100B6800ED25E02470C8F208EFF278C3E22401F220
:100B780018E23400F280A4E478C2F208F278DEE2E7
:100B8800FE08E2FF78C2E2FC08E2FDC39FEE648043
:100B9800F8EC6480985042EF24FFFFEE34FFCFC397
:100BA8009DCF9CFE7803E2FB08E2FA08E2F98F8207
:100BB8008E83120003FF3395E0FEEF24D0FFEE345E
:100BC800FFF8ED25E02484C8F208EFF278C3E224A8
:100BD80001F218E23400F280A4E478C2F208F27854
:100BE800DCE2FE08E2FF78C2E2FC08E2FDC39FEE09
:100BF8006480F8EC648098507978DAECF208EDF2C9
:100C0800E478C4F208F278DEE2FE08E2FF78C4E293
:100C1800FC08E2FDC39FEE6480F8EC6480985044C1
:100C2800ED25E02484F8E2FC08E2FD78C208E2251C
:100C3800E02470F8E2FE08E2FF12003078DA08E2F9
:100C480025E02499F8E22FF218E23EF278C5E22472
:100C580001F218E23400F278DBE22401F218E234FF
:100C680000F280A278C3E22401F218E23400F20212
:100C78000BE7E478C2F208F278DAE2FE08E2FF78DD
:100C8800C2E2FA08E2FBD39FEE6480F8EA64809837
:100C980050617821E2FE08E2FFAD03ED25E02499DA
:100CA800F8E22FF218E23EF2ED25E02498F8E2FF90
:100CB80008E27857CFF208EFF218E2FE08E2FF7C6C
:100CC800007D0A120097EB25E02498F8ECF208ED75
:100CD800F27857E2FE08E2FF7C007D0A120097785E
:100CE80021EEF208EFF278C3E22401F218E23400B0
:100CF800F2808578DAE2FF08E278C2CFF208EFF2F4
:100D080078C208E225E02499F9E3700219E3700D2E
:100D180078C3E224FFF218E234FFF280E378C2E2FB
:100D2800FE08E2FFC3EE64809480402CA907E92501
:100D3800E02498F8E2FA08E2FB78DA08E2C39904BA
:100D4800FD780A7401F27F0212190978C3E224FFC0
:090D5800F218E234FFF280C5221A
:10084C007800EBF208EAF208E9F27800E2FB08E241
:10085C00FA08E2F912193878DCEEF208EFF27803B4
:10086C00E2FB08E2FA08E2F912193878DEEEF20837
:10087C00EFF278DCE2FC08E2FDC39FEE6480F8EC5A
:10088C00648098402178DEE2FE08E2FFEDB5072394
:10089C00ECB5061F78177C007DFE7BFE7A00792371
:1008AC0012033ABFFF0D7BFF7A1979827D017F021B
:1008BC0002187B78E01201A30000000078E412011A
:1008CC00A300000000E478C2F208F278DCE2FE0833
:1008DC00E2FFC378C3E29FEE6480F5F018E2648017
:1008EC0095F050747800E2FB08E2FA08E2F978C25D
:1008FC00E2FE08E2F5828E83120003FF3395E0FEE0
:10090C00FDFCC004C005C006C007E47F0AFEFDFC68
:10091C0078E0E2FB08E2F908E2FA08E2CBF812010F
:10092C0032D003D002D001D000EF2BFFEE3AFEED17
:10093C0039FDEC38FCEF24D0FFEE34FFFEED34FF34
:10094C00FDEC34FFFC78E012019778C3E22401F24D
:10095C0018E23400F20208D7E478C2F208F278DE2A
:10096C00E2FE08E2FFC378C3E29FEE6480F5F01864
:10097C00E2648095F050747803E2FB08E2FA08E236
:10098C00F978C2E2FE08E2F5828E83120003FF338F
:10099C0095E0FEFDFCC004C005C006C007E47F0A5C
:1009AC00FEFDFC78E4E2FB08E2F908E2FA08E2CB8F
:1009BC00F8120132D003D002D001D000EF2BFFEEA1
:1009CC003AFEED39FDEC38FCEF24D0FFEE34FFFE9F
:1009DC00ED34FFFDEC34FFFC78E412019778C3E2B0
:1009EC002401F218E23400F202096A78E4E2FB080E
:1009FC00E2F908E2FA08E2CBF8C00078E0E2FC0881
:100A0C00E2FD08E2FE08E2FFD00012170B78E812B4
:100A1C00019774FF78C2F208F2E4FFFEFDFC78E85F
:100A2C00E2FB08E2F908E2FA08E2CBF8D312018102
:100A3C00405278C3E22401F218E23400F2E47B0A5B
:100A4C00FAF9F8C00078E8E2FC08E2FD08E2FE08DA
:100A5C00E2FFD00012170BAF0378C208E225E024A6
:100A6C0098F8EAF208EFF278E8E2FC08E2FD08E216
:100A7C00FE08E2FFE47B0AFAF9F812170B78E81289
:100A8C0001978095E478DAF208F278C2E2FE08E287
:100A9C00FFC3EE64809480403278DBE22401F218CC
:100AAC00E23400F2EF25E02498F8E2FA08E2FB7851
:100ABC00DA08E2FD780A7401F27F0212190978C390
:0C0ACC00E224FFF218E234FFF280BF22A7
:10127500E478C2F208F208F208F27BFE7A00795CA3
:1012850012193878C2E2FC08E2FDC39FEC9E503685
:10129500745C2DF8E2FFC3648094B04029D3EF64F9
:1012A5008094B9502178C408E22417F8EFF278C386
:1012B500E22401F218E23400F278C5E22401F218C2
:1012C500E23400F280B478C3E22401F218E234007B
:1012D500F2E478C4F208F27BFE7A00795C121938E0
:1012E50078C2E2FC08E2FDC39FEC9E5036745C2D8B
:1012F500F8E2FFC3648094B04029D3EF648094B9C9
:10130500502178C408E22423F8EFF278C3E22401DF
:10131500F218E23400F278C5E22401F218E2340052
:10132500F280B47BFE7A0079231219387BFE7A00AD
:1013350079171219387BFE7A00795C121938785BB7
:10134500E224D6603824FD601E24FE604624047025
:1013550058780374FEF2087400F2087423F27BFED9
:101365007A007917020D61780374FEF2087400F2B1
:10137500087423F27BFE7A00791702043E78037421
:10138500FEF2087400F2087423F27BFE7A007917E6
:10139500020AD8780374FEF2087400F2087423F286
:0A13A5007BFE7A00791712084C2233
:1013AF0012194D120F6E7810EFF2642170030214B0
:1013BF00A7E2FF643D70030214A7C3EF648094B0EB
:1013CF00400AD3EF648094B95002803EEF642B60E3
:1013DF000FEF642D600AEF642A6005EF642F7040F1
:1013EF0078EC08E2245BF8E2FF642B600EEF642DCB
:1013FF006009EF642A6004EFB42F0B78EDE224FF4D
:10140F00F218E234FFF27810E2FF78EC08E2245C85
:10141F00F8EFF278EDE22401F218E23400F2801CCA
:10142F007810E2B4431612194D78EDE224FFF2184A
:10143F00E234FFF208E2245CF87420F2E478C2F29E
:10144F0008F27BFE7A00795C12193878C2E2FC0848
:10145F00E2FDC39FEC9E5030785B7420F2745C2DDC
:10146F00F8E2FF642B600EEF642D6009EF642A60D1
:10147F0004EFB42F06785BEFF2800D78C3E22401FE
:10148F00F218E23400F280BA7BFE7A00795C7D01BB
:10149F007F0112187B0213B27810E2643D600302E1
:0E14AF0013B27F14FE1218441212750213B20B
:10192300EF1FAC0670011E4C600A7D027CEFDCFEEB
:04193300DDFC80EC6B
:01193700228D
:06196100C2A58F80D2A791
:081967007F027EEFDEFEDFFCD3
:01196F002255
:0A197000C2A6121961C2A70219678E
:1018C900E2FC08E2FDCFCDCFCECCCE1200427C00A7
:0918D9007D0A120042ED2430FFEB
:0A18E200D2A6121961C2A70219670D
:0518EC00EAF208EBF236
:1018F100AE07EEB40104ED148007EEB40209ED2445
:081901003F4480FF121970221F
:10194D007F381219707F0C1219707F061219707F73
:04195D0001021970FA
:08197A001218F1AF030218E29C
:0A187B007806EBF208EAF208E9F241
:101885001218F1E4FD7806E2FB08E2FA08E2F98DA8
:1018950082758300120003FF60061218E20D80E5D1
:0118A5002220
:0C174F007F0AEA24FFFDE434FFFC7E006A
:0D175B00780BEEF208EFF208ECF208EDF268
:101768007F017E00E4FBEBFDD3780EE29D7480F5EB
:10177800F018E2648095F0400D780BE2FC08E2FD79
:061788001200300B80E0AE
:01178E002238
:0219090078085C
:10190B001218EC08E2FAEAD39400400B12174F7846
:07191B00081218C91A80EF41
:0119220022A2
:10178F001218F1C3EA64809480400E7F2B1218E286
:10179F0078F3EAF208EBF280117F2D1218E2C3E41E
:1017AF009BFEE49A78F3F208CEF278F2E2FAEAD3EB
:0F17BF009400400B12174F78F31218C91A80EFDD
:0117CE0022F8
:0217CF0078F7A9
:1017D1001218EC08E2FAEAD39400402C7F10121799
:1017E1005178F7E2FC08E2FDCFCDCFCECCCE12008E
:1017F10042EF540FFEC3940AEE50042430800224B9
:0818010037FF1218E21A80CE35
:0118090022BC
:02180A0078FC68
:10180C001218EC08E2FAEAD39400402BEA24FFFD0C
:10181C00E434FFFC7F027E0012175B78FCE2FC08CC
:10182C00E2FDCFCDCFCECCCE120042EF540124300E
:07183C00FF1218E21A80CF31
:011843002282
:100F6E0078007421F27590FFC2932097167F147E3D
:100F7E00001219233097FD7F147E0012192378007A
:100F8E007431F22096167F147E001219233096FDCE
:100F9E007F147E0012192378007434F22095167F88
:100FAE00147E001219233095FD7F147E0012192332
:100FBE0078007437F22094167F147E0012192330B5
:100FCE0094FD7F147E0012192378007443F27590FD
:100FDE00FFC2922097167F147E001219233097FDC0
:100FEE007F147E0012192378007432F22096167F39
:100FFE00147E001219233096FD7F147E00121923E1
:10100E0078007435F22095167F147E001219233065
:10101E0095FD7F147E0012192378007438F2209407
:10102E00167F147E001219233094FD7F147E001259
:10103E00192378007430F27590FFC2912097167FB5
:10104E00147E001219233097FD7F147E001219238F
:10105E0078007433F22096167F147E001219233016
:10106E0096FD7F147E0012192378007436F22095B7
:10107E00167F147E001219233095FD7F147E001208
:10108E00192378007439F22094167F147E001219F9
:10109E00233094FD7F147E001219237800743DF2E4
:1010AE007590FFC2902097167F147E001219233080
:1010BE0097FD7F147E001219237800742BF2209670
:1010CE00167F147E001219233096FD7F147E0012B7
:1010DE0019237800742DF22095167F147E001219B4
:1010EE00233095FD7F147E001219237800742AF2A6
:1010FE002094167F147E001219233094FD7F147EE7
:0D110E00001219237800742FF27800E2FF20
:01111B0022B1
:030000000215A046
:0C15A000787FE4F6D8FD7581070215E79E
:10000300BB010CE58229F582E5833AF583E02250B2
:1000130006E92582F8E622BBFE06E92582F8E222FC
:0D002300E58229F582E5833AF583E4932216
:10003000EF8DF0A4A8F0CF8CF0A428CE8DF0A42EE4
:02004000FE229E
:10004200BC000BBE0029EF8DF084FFADF022E4CCA2
:10005200F875F008EF2FFFEE33FEEC33FCEE9DEC6B
:10006200984005FCEE9DFE0FD5F0E9E4CEFD22EDB1
:10007200F8F5F0EE8420D21CFEADF075F008EF2FFB
:10008200FFED33FD4007985006D5F0F222C398FDEC
:050092000FD5F0EA2289
:10009700C2D5EC30E709B2D5E4C39DFDE49CFCEE84
:1000A70030E715B2D5E4C39FFFE49EFE120042C3BA
:1000B700E49DFDE49CFC800312004230D507C3E4B5
:0600C7009FFFE49EFE22F3
:1000CD00BB0110E58229F582E5833AF583E0F5F071
:1000DD00A3E0225009E92582F886F008E622BBFE4E
:1000ED000AE92582F8E2F5F008E222E5832AF58394
:0800FD00E993F5F0A3E9932259
:10010500F8BB0111E58229F582E5833AF583E8F02C
:10011500E5F0A3F0225009E92582C8F608A6F022E9
:0D012500BBFE09E92582C8F2E5F008F222D0
:10013200E88FF0A4CC8BF0A42CFCE98EF0A42CFC6C
:100142008AF0EDA42CFCEA8EF0A4CDA8F08BF0A4EA
:100152002DCC3825F0FDE98FF0A42CCD35F0FCEB49
:100162008EF0A4FEA9F0EB8FF0A4CFC5F02ECD390E
:0F017200FEE43CFCEAA42DCE35F0FDE43CFC227B
:10170B00C2D5E830E70FB2D5E4C39BFBE49AFAE409
:10171B0099F9E498F8EC30E717B2D5121741120398
:10172B00ACE4C39BFBE49AFAE499F9E498F88003E0
:10173B001203AC30D50DE4C39FFFE49EFEE49DFD88
:04174B00E49CFC22FC
:10018100EB9FF5F0EA9E42F0E99D42F0EC6480C8F5
:0601910064809845F02295
:0C019700ECF208EDF208EEF208EFF222A4
:1001A300D083D082E493F208740193F2087402932B
:0901B300F208740393F274047362
:1001BC00E3F5F009E208B5F06D606B80F3E3F5F060
:1001CC0009E608B5F060605E80F387F009E608B5D3
:1001DC00F054605280F487F009E208B5F0486046AC
:1001EC0080F488828C8387F009E0A3B5F038603600
:1001FC0080F488828C8387F009E493A3B5F02760A0
:10020C002580F388828C83E3F5F009E0A3B5F01622
:10021C00601480F388828C83E3F5F009E493A3B532
:10022C00F004600280F20202E7808580E7808E8015
:10023C00D2803C8015806C807E809B80B5808B80CA
:10024C00A1804F8070803A0202F389828A83ECFA93
:10025C00E493F5F0A3C8C582C8CCC583CCE493A3C2
:10026C00C8C582C8CCC583CCB5F070606E80E189FE
:10027C00828A83E493F5F0A3E208B5F05E605C80BB
:10028C00F289828A83E0F5F0A3E608B5F04D604B65
:10029C0080F389828A83E0F5F0A3E208B5F03C6034
:1002AC003A80F389828A83E493F5F0A3E608B5F0EB
:1002BC002A602880F2805389828A83ECFAE493F5D1
:1002CC00F0A3C8C582C8CCC583CCE0A3C8C582C87E
:1002DC00CCC583CCB5F004600280E27FFFB5F002A0
:1002EC000F2240027F012289828A83ECFAE0F5F02A
:1002FC00A3C8C582C8CCC583CCE0A3C8C582C8CC72
:10030C00C583CCB5F0D560D380E389828A83ECFABF
:10031C00E0F5F0A3C8C582C8CCC583CCE493A3C8D0
:10032C00C582C8CCC583CCB5F0B160AF80E288F093
:10033C00ED2402B4040050A3F582EB2402B40400B3
:0B034C00509923234582239002357353
:10193800E4FFFE120357600C0FEF70010E09E97007
:05194800F20A80EF220D
:1015AC000213AFE493A3F8E493A34003F68001F293
:1015BC0008DFF48029E493A3F85407240CC8C33340
:1015CC00C4540F4420C8834004F456800146F6DF0F
:1015DC00E4800B010204081020408090162CE47E5D
:1015EC00019360BCA3FF543F30E509541FFEE49304
:1015FC00A360010ECF54C025E060A840B8E493A3CB
:10160C00FAE493A3F8E493A3C8C582C8CAC583CAF5
:10161C00F0A3C8C582C8CAC583CADFE9DEE780BEAD
:0116B3000036
:10035700BB010689828A83E0225002E722BBFE02A4
:09036700E32289828A83E49322D7
:1003700075F008758200EF2FFFEE33FECD33CDCC44
:1003800033CCC58233C5829BED9AEC99E5829840C7
:100390000CF582EE9BFEED9AFDEC99FC0FD5F0D6A4
:1003A000E4CEFBE4CDFAE4CCF9A88222B800C1B9CE
:1003B0000059BA002DEC8BF084CFCECDFCE5F0CB0C
:1003C000F97818EF2FFFEE33FEED33FDEC33FCEB45
:1003D00033FB10D703994004EB99FB0FD8E5E4F900
:1003E000FA227818EF2FFFEE33FEED33FDEC33FCED
:1003F000C933C910D7059BE99A4007EC9BFCE99AE1
:10040000F90FD8E0E4C9FAE4CCFB2275F010EF2F25
:10041000FFEE33FEED33FDCC33CCC833C810D70725
:100420009BEC9AE899400AED9BFDEC9AFCE899F860
:0E0430000FD5F0DAE4CDFBE4CCFAE4C8F922F3
:00000001FF
